{
  "_format": "hh-sol-artifact-1",
  "contractName": "PTPrizeHookRouter",
  "sourceName": "src/PTPrizeHookRouter.sol",
  "abi": [
    {
      "inputs": [
        {
          "internalType": "address",
          "name": "_prizeToken",
          "type": "address"
        },
        {
          "internalType": "address",
          "name": "_sidepotManager",
          "type": "address"
        },
        {
          "internalType": "address",
          "name": "_prizeVault",
          "type": "address"
        },
        {
          "internalType": "address",
          "name": "_treasury",
          "type": "address"
        },
        {
          "internalType": "uint256",
          "name": "_sidepotId",
          "type": "uint256"
        },
        {
          "internalType": "uint16",
          "name": "_sidepotBps",
          "type": "uint16"
        },
        {
          "internalType": "uint16",
          "name": "_treasuryBps",
          "type": "uint16"
        }
      ],
      "stateMutability": "nonpayable",
      "type": "constructor"
    },
    {
      "inputs": [],
      "name": "InvalidAddress",
      "type": "error"
    },
    {
      "inputs": [],
      "name": "InvalidSplit",
      "type": "error"
    },
    {
      "inputs": [],
      "name": "NotPrizeVault",
      "type": "error"
    },
    {
      "inputs": [
        {
          "internalType": "address",
          "name": "owner",
          "type": "address"
        }
      ],
      "name": "OwnableInvalidOwner",
      "type": "error"
    },
    {
      "inputs": [
        {
          "internalType": "address",
          "name": "account",
          "type": "address"
        }
      ],
      "name": "OwnableUnauthorizedAccount",
      "type": "error"
    },
    {
      "inputs": [],
      "name": "ReentrancyGuardReentrantCall",
      "type": "error"
    },
    {
      "anonymous": false,
      "inputs": [
        {
          "indexed": true,
          "internalType": "address",
          "name": "previousOwner",
          "type": "address"
        },
        {
          "indexed": true,
          "internalType": "address",
          "name": "newOwner",
          "type": "address"
        }
      ],
      "name": "OwnershipTransferred",
      "type": "event"
    },
    {
      "anonymous": false,
      "inputs": [
        {
          "indexed": true,
          "internalType": "address",
          "name": "winner",
          "type": "address"
        },
        {
          "indexed": false,
          "internalType": "uint256",
          "name": "prizeAmount",
          "type": "uint256"
        },
        {
          "indexed": false,
          "internalType": "uint256",
          "name": "winnerAmount",
          "type": "uint256"
        },
        {
          "indexed": false,
          "internalType": "uint256",
          "name": "treasuryAmount",
          "type": "uint256"
        },
        {
          "indexed": false,
          "internalType": "uint256",
          "name": "sidepotAmount",
          "type": "uint256"
        }
      ],
      "name": "PrizeRouted",
      "type": "event"
    },
    {
      "anonymous": false,
      "inputs": [
        {
          "indexed": true,
          "internalType": "address",
          "name": "prizeVault",
          "type": "address"
        }
      ],
      "name": "PrizeVaultUpdated",
      "type": "event"
    },
    {
      "anonymous": false,
      "inputs": [
        {
          "indexed": false,
          "internalType": "uint256",
          "name": "sidepotId",
          "type": "uint256"
        }
      ],
      "name": "SidepotIdUpdated",
      "type": "event"
    },
    {
      "anonymous": false,
      "inputs": [
        {
          "indexed": true,
          "internalType": "address",
          "name": "sidepotManager",
          "type": "address"
        }
      ],
      "name": "SidepotManagerUpdated",
      "type": "event"
    },
    {
      "anonymous": false,
      "inputs": [
        {
          "indexed": false,
          "internalType": "uint16",
          "name": "sidepotBps",
          "type": "uint16"
        },
        {
          "indexed": false,
          "internalType": "uint16",
          "name": "treasuryBps",
          "type": "uint16"
        }
      ],
      "name": "SplitConfigUpdated",
      "type": "event"
    },
    {
      "anonymous": false,
      "inputs": [
        {
          "indexed": true,
          "internalType": "address",
          "name": "treasury",
          "type": "address"
        }
      ],
      "name": "TreasuryUpdated",
      "type": "event"
    },
    {
      "inputs": [
        {
          "internalType": "address",
          "name": "",
          "type": "address"
        },
        {
          "internalType": "uint8",
          "name": "",
          "type": "uint8"
        },
        {
          "internalType": "uint32",
          "name": "",
          "type": "uint32"
        },
        {
          "internalType": "uint256",
          "name": "prizeAmount",
          "type": "uint256"
        },
        {
          "internalType": "address",
          "name": "",
          "type": "address"
        },
        {
          "internalType": "bytes",
          "name": "data",
          "type": "bytes"
        }
      ],
      "name": "afterClaimPrize",
      "outputs": [],
      "stateMutability": "nonpayable",
      "type": "function"
    },
    {
      "inputs": [
        {
          "internalType": "address",
          "name": "winner",
          "type": "address"
        },
        {
          "internalType": "uint8",
          "name": "",
          "type": "uint8"
        },
        {
          "internalType": "uint32",
          "name": "",
          "type": "uint32"
        },
        {
          "internalType": "uint96",
          "name": "",
          "type": "uint96"
        },
        {
          "internalType": "address",
          "name": "",
          "type": "address"
        }
      ],
      "name": "beforeClaimPrize",
      "outputs": [
        {
          "internalType": "address",
          "name": "prizeRecipient",
          "type": "address"
        },
        {
          "internalType": "bytes",
          "name": "data",
          "type": "bytes"
        }
      ],
      "stateMutability": "view",
      "type": "function"
    },
    {
      "inputs": [],
      "name": "owner",
      "outputs": [
        {
          "internalType": "address",
          "name": "",
          "type": "address"
        }
      ],
      "stateMutability": "view",
      "type": "function"
    },
    {
      "inputs": [],
      "name": "prizeToken",
      "outputs": [
        {
          "internalType": "contract IERC20",
          "name": "",
          "type": "address"
        }
      ],
      "stateMutability": "view",
      "type": "function"
    },
    {
      "inputs": [],
      "name": "prizeVault",
      "outputs": [
        {
          "internalType": "address",
          "name": "",
          "type": "address"
        }
      ],
      "stateMutability": "view",
      "type": "function"
    },
    {
      "inputs": [],
      "name": "renounceOwnership",
      "outputs": [],
      "stateMutability": "nonpayable",
      "type": "function"
    },
    {
      "inputs": [
        {
          "internalType": "address",
          "name": "_prizeVault",
          "type": "address"
        }
      ],
      "name": "setPrizeVault",
      "outputs": [],
      "stateMutability": "nonpayable",
      "type": "function"
    },
    {
      "inputs": [
        {
          "internalType": "uint256",
          "name": "_sidepotId",
          "type": "uint256"
        }
      ],
      "name": "setSidepotId",
      "outputs": [],
      "stateMutability": "nonpayable",
      "type": "function"
    },
    {
      "inputs": [
        {
          "internalType": "address",
          "name": "_sidepotManager",
          "type": "address"
        }
      ],
      "name": "setSidepotManager",
      "outputs": [],
      "stateMutability": "nonpayable",
      "type": "function"
    },
    {
      "inputs": [
        {
          "internalType": "uint16",
          "name": "_sidepotBps",
          "type": "uint16"
        },
        {
          "internalType": "uint16",
          "name": "_treasuryBps",
          "type": "uint16"
        }
      ],
      "name": "setSplitConfig",
      "outputs": [],
      "stateMutability": "nonpayable",
      "type": "function"
    },
    {
      "inputs": [
        {
          "internalType": "address",
          "name": "_treasury",
          "type": "address"
        }
      ],
      "name": "setTreasury",
      "outputs": [],
      "stateMutability": "nonpayable",
      "type": "function"
    },
    {
      "inputs": [],
      "name": "sidepotBps",
      "outputs": [
        {
          "internalType": "uint16",
          "name": "",
          "type": "uint16"
        }
      ],
      "stateMutability": "view",
      "type": "function"
    },
    {
      "inputs": [],
      "name": "sidepotId",
      "outputs": [
        {
          "internalType": "uint256",
          "name": "",
          "type": "uint256"
        }
      ],
      "stateMutability": "view",
      "type": "function"
    },
    {
      "inputs": [],
      "name": "sidepotManager",
      "outputs": [
        {
          "internalType": "contract ISidepotManager",
          "name": "",
          "type": "address"
        }
      ],
      "stateMutability": "view",
      "type": "function"
    },
    {
      "inputs": [
        {
          "internalType": "address",
          "name": "newOwner",
          "type": "address"
        }
      ],
      "name": "transferOwnership",
      "outputs": [],
      "stateMutability": "nonpayable",
      "type": "function"
    },
    {
      "inputs": [],
      "name": "treasury",
      "outputs": [
        {
          "internalType": "address",
          "name": "",
          "type": "address"
        }
      ],
      "stateMutability": "view",
      "type": "function"
    },
    {
      "inputs": [],
      "name": "treasuryBps",
      "outputs": [
        {
          "internalType": "uint16",
          "name": "",
          "type": "uint16"
        }
      ],
      "stateMutability": "view",
      "type": "function"
    }
  ],
  "bytecode": "0x60a06040523480156200001157600080fd5b5060405162000f8e38038062000f8e8339810160408190526200003491620001e5565b33806200005b57604051631e4fbdf760e01b81526000600482015260240160405180910390fd5b620000668162000165565b50600180556001600160a01b03871615806200008957506001600160a01b038616155b806200009c57506001600160a01b038416155b15620000bb5760405163e6c4247b60e01b815260040160405180910390fd5b612710620000ca828462000271565b61ffff161115620000ee5760405163bcd55b0f60e01b815260040160405180910390fd5b6001600160a01b03968716608052600280549688166001600160a01b03199788161790556003805495881695871695909517909455600480549390961692909416919091179093556005929092556006805461ffff938416620100000263ffffffff199091169390921692909217179055620002a2565b600080546001600160a01b038381166001600160a01b0319831681178455604051919092169283917f8be0079c531659141344cd1fd0a4f28419497f9722a3daafe3b4186f6b6457e09190a35050565b80516001600160a01b0381168114620001cd57600080fd5b919050565b805161ffff81168114620001cd57600080fd5b600080600080600080600060e0888a0312156200020157600080fd5b6200020c88620001b5565b96506200021c60208901620001b5565b95506200022c60408901620001b5565b94506200023c60608901620001b5565b9350608088015192506200025360a08901620001d2565b91506200026360c08901620001d2565b905092959891949750929550565b61ffff8181168382160190808211156200029b57634e487b7160e01b600052601160045260246000fd5b5092915050565b608051610cbb620002d36000396000818161023f01528181610593015281816106a3015261073e0152610cbb6000f3fe608060405234801561001057600080fd5b506004361061010b5760003560e01c8063715018a6116100a2578063b4db727f11610071578063b4db727f14610219578063d0ef024a1461023a578063d44c6da314610261578063f0f4426014610274578063f2fde38b1461028757600080fd5b8063715018a6146101da57806378f08a8a146101e257806381f60fd0146101f55780638da5cb5b1461020857600080fd5b8063676a3a97116100de578063676a3a9714610193578063691e62e9146101a65780636b609012146101b45780636b93051e146101c757600080fd5b80633726dc92146101105780634dc10ea11461012c57806361d027b31461015357806367442df71461017e575b600080fd5b61011960055481565b6040519081526020015b60405180910390f35b6006546101409062010000900461ffff1681565b60405161ffff9091168152602001610123565b600454610166906001600160a01b031681565b6040516001600160a01b039091168152602001610123565b61019161018c366004610979565b61029a565b005b600354610166906001600160a01b031681565b6006546101409061ffff1681565b600254610166906001600160a01b031681565b6101916101d53660046109a7565b6102dd565b610191610356565b6101916101f03660046109e2565b61036a565b6101916102033660046109a7565b610403565b6000546001600160a01b0316610166565b61022c610227366004610a3a565b610455565b604051610123929190610ab8565b6101667f000000000000000000000000000000000000000000000000000000000000000081565b61019161026f366004610b16565b6104b8565b6101916102823660046109a7565b610816565b6101916102953660046109a7565b61088f565b6102a26108d2565b60058190556040518181527f5d064ee1eea0d8f31204a89c067937df713bab3354e4b16ad92e39b6fbd620349060200160405180910390a150565b6102e56108d2565b6001600160a01b03811661030c5760405163e6c4247b60e01b815260040160405180910390fd5b600280546001600160a01b0319166001600160a01b0383169081179091556040517f4cec6598d60150d0980e16636358815d13fc1441812eaa6ffa990d0ab951238d90600090a250565b61035e6108d2565b61036860006108ff565b565b6103726108d2565b61271061037f8284610bef565b61ffff1611156103a25760405163bcd55b0f60e01b815260040160405180910390fd5b6006805461ffff84811663ffffffff19909216821762010000918516918202179092556040805191825260208201929092527fb0fecb23d7cb62cbe2983f308a247587d4f1ad1a89a7f9c9a1c98a01b4571396910160405180910390a15050565b61040b6108d2565b600380546001600160a01b0319166001600160a01b0383169081179091556040517f68dc2ac936343e767f9487005290857aa94c19f7a0e8215100c8cdf42d6793b990600090a250565b6003546000906060906001600160a01b0316331461048657604051631c53502560e31b815260040160405180910390fd5b604080516001600160a01b03891660208201523093500160405160208183030381529060405290509550959350505050565b6003546001600160a01b031633146104e357604051631c53502560e31b815260040160405180910390fd5b6104eb61094f565b60006104f9828401846109a7565b600654909150600090612710906105149061ffff1688610c11565b61051e9190610c2e565b6006549091506000906127109061053f9062010000900461ffff1689610c11565b6105499190610c2e565b9050600081610558848a610c50565b6105629190610c50565b905082156106715760025460405163095ea7b360e01b81526001600160a01b039182166004820152602481018590527f00000000000000000000000000000000000000000000000000000000000000009091169063095ea7b3906044016020604051808303816000875af11580156105de573d6000803e3d6000fd5b505050506040513d601f19601f820116820180604052508101906106029190610c63565b506002546005546040516297b2e560e11b81526001600160a01b039092169163012f65ca9161063e918790600401918252602082015260400190565b600060405180830381600087803b15801561065857600080fd5b505af115801561066c573d6000803e3d6000fd5b505050505b8115610712576004805460405163a9059cbb60e01b81526001600160a01b0391821692810192909252602482018490527f0000000000000000000000000000000000000000000000000000000000000000169063a9059cbb906044016020604051808303816000875af11580156106ec573d6000803e3d6000fd5b505050506040513d601f19601f820116820180604052508101906107109190610c63565b505b80156107ad5760405163a9059cbb60e01b81526001600160a01b038581166004830152602482018390527f0000000000000000000000000000000000000000000000000000000000000000169063a9059cbb906044016020604051808303816000875af1158015610787573d6000803e3d6000fd5b505050506040513d601f19601f820116820180604052508101906107ab9190610c63565b505b6040805189815260208101839052908101839052606081018490526001600160a01b038516907f86de031c17c104a31c8fc96cb144c18b2230e4dba63cb965ef0c732ffc8668c49060800160405180910390a25050505061080d60018055565b50505050505050565b61081e6108d2565b6001600160a01b0381166108455760405163e6c4247b60e01b815260040160405180910390fd5b600480546001600160a01b0319166001600160a01b0383169081179091556040517f7dae230f18360d76a040c81f050aa14eb9d6dc7901b20fc5d855e2a20fe814d190600090a250565b6108976108d2565b6001600160a01b0381166108c657604051631e4fbdf760e01b8152600060048201526024015b60405180910390fd5b6108cf816108ff565b50565b6000546001600160a01b031633146103685760405163118cdaa760e01b81523360048201526024016108bd565b600080546001600160a01b038381166001600160a01b0319831681178455604051919092169283917f8be0079c531659141344cd1fd0a4f28419497f9722a3daafe3b4186f6b6457e09190a35050565b60026001540361097257604051633ee5aeb560e01b815260040160405180910390fd5b6002600155565b60006020828403121561098b57600080fd5b5035919050565b6001600160a01b03811681146108cf57600080fd5b6000602082840312156109b957600080fd5b81356109c481610992565b9392505050565b803561ffff811681146109dd57600080fd5b919050565b600080604083850312156109f557600080fd5b6109fe836109cb565b9150610a0c602084016109cb565b90509250929050565b803560ff811681146109dd57600080fd5b803563ffffffff811681146109dd57600080fd5b600080600080600060a08688031215610a5257600080fd5b8535610a5d81610992565b9450610a6b60208701610a15565b9350610a7960408701610a26565b925060608601356bffffffffffffffffffffffff81168114610a9a57600080fd5b91506080860135610aaa81610992565b809150509295509295909350565b60018060a01b038316815260006020604081840152835180604085015260005b81811015610af457858101830151858201606001528201610ad8565b506000606082860101526060601f19601f830116850101925050509392505050565b600080600080600080600060c0888a031215610b3157600080fd5b8735610b3c81610992565b9650610b4a60208901610a15565b9550610b5860408901610a26565b9450606088013593506080880135610b6f81610992565b925060a088013567ffffffffffffffff80821115610b8c57600080fd5b818a0191508a601f830112610ba057600080fd5b813581811115610baf57600080fd5b8b6020828501011115610bc157600080fd5b60208301945080935050505092959891949750929550565b634e487b7160e01b600052601160045260246000fd5b61ffff818116838216019080821115610c0a57610c0a610bd9565b5092915050565b8082028115828204841417610c2857610c28610bd9565b92915050565b600082610c4b57634e487b7160e01b600052601260045260246000fd5b500490565b81810381811115610c2857610c28610bd9565b600060208284031215610c7557600080fd5b815180151581146109c457600080fdfea26469706673582212207820cf05d3762cdf6cec38c9ff0a8fad7fd66151ddb1b2bf074d0827cad7543864736f6c63430008140033",
  "linkReferences": {},
  "deployedLinkReferences": {}
}