{
  "_format": "hh-sol-artifact-1",
  "contractName": "SidepotManager",
  "sourceName": "src/SidepotManager.sol",
  "abi": [
    {
      "inputs": [
        {
          "internalType": "address",
          "name": "_paymentToken",
          "type": "address"
        }
      ],
      "stateMutability": "nonpayable",
      "type": "constructor"
    },
    {
      "inputs": [],
      "name": "DrawBelowMinimum",
      "type": "error"
    },
    {
      "inputs": [],
      "name": "InactivePot",
      "type": "error"
    },
    {
      "inputs": [],
      "name": "InvalidAmount",
      "type": "error"
    },
    {
      "inputs": [],
      "name": "InvalidPot",
      "type": "error"
    },
    {
      "inputs": [],
      "name": "NotLossReporter",
      "type": "error"
    },
    {
      "inputs": [],
      "name": "NotRouter",
      "type": "error"
    },
    {
      "inputs": [
        {
          "internalType": "address",
          "name": "owner",
          "type": "address"
        }
      ],
      "name": "OwnableInvalidOwner",
      "type": "error"
    },
    {
      "inputs": [
        {
          "internalType": "address",
          "name": "account",
          "type": "address"
        }
      ],
      "name": "OwnableUnauthorizedAccount",
      "type": "error"
    },
    {
      "inputs": [],
      "name": "ReentrancyGuardReentrantCall",
      "type": "error"
    },
    {
      "anonymous": false,
      "inputs": [
        {
          "indexed": true,
          "internalType": "uint256",
          "name": "potId",
          "type": "uint256"
        },
        {
          "indexed": true,
          "internalType": "address",
          "name": "account",
          "type": "address"
        },
        {
          "indexed": false,
          "internalType": "uint256",
          "name": "lossUnits",
          "type": "uint256"
        }
      ],
      "name": "LossReported",
      "type": "event"
    },
    {
      "anonymous": false,
      "inputs": [
        {
          "indexed": true,
          "internalType": "address",
          "name": "reporter",
          "type": "address"
        },
        {
          "indexed": false,
          "internalType": "bool",
          "name": "allowed",
          "type": "bool"
        }
      ],
      "name": "LossReporterUpdated",
      "type": "event"
    },
    {
      "anonymous": false,
      "inputs": [
        {
          "indexed": true,
          "internalType": "address",
          "name": "previousOwner",
          "type": "address"
        },
        {
          "indexed": true,
          "internalType": "address",
          "name": "newOwner",
          "type": "address"
        }
      ],
      "name": "OwnershipTransferred",
      "type": "event"
    },
    {
      "anonymous": false,
      "inputs": [
        {
          "indexed": true,
          "internalType": "uint256",
          "name": "potId",
          "type": "uint256"
        },
        {
          "indexed": false,
          "internalType": "string",
          "name": "label",
          "type": "string"
        },
        {
          "indexed": false,
          "internalType": "uint256",
          "name": "minDrawAmount",
          "type": "uint256"
        }
      ],
      "name": "PotCreated",
      "type": "event"
    },
    {
      "anonymous": false,
      "inputs": [
        {
          "indexed": true,
          "internalType": "uint256",
          "name": "potId",
          "type": "uint256"
        },
        {
          "indexed": true,
          "internalType": "address",
          "name": "winner",
          "type": "address"
        },
        {
          "indexed": false,
          "internalType": "uint256",
          "name": "amount",
          "type": "uint256"
        }
      ],
      "name": "PotDrawn",
      "type": "event"
    },
    {
      "anonymous": false,
      "inputs": [
        {
          "indexed": true,
          "internalType": "uint256",
          "name": "potId",
          "type": "uint256"
        },
        {
          "indexed": true,
          "internalType": "address",
          "name": "funder",
          "type": "address"
        },
        {
          "indexed": false,
          "internalType": "uint256",
          "name": "amount",
          "type": "uint256"
        }
      ],
      "name": "PotFunded",
      "type": "event"
    },
    {
      "anonymous": false,
      "inputs": [
        {
          "indexed": true,
          "internalType": "uint256",
          "name": "fromPotId",
          "type": "uint256"
        },
        {
          "indexed": true,
          "internalType": "uint256",
          "name": "toPotId",
          "type": "uint256"
        },
        {
          "indexed": false,
          "internalType": "uint256",
          "name": "amount",
          "type": "uint256"
        }
      ],
      "name": "PotSiphoned",
      "type": "event"
    },
    {
      "anonymous": false,
      "inputs": [
        {
          "indexed": true,
          "internalType": "address",
          "name": "router",
          "type": "address"
        }
      ],
      "name": "RouterUpdated",
      "type": "event"
    },
    {
      "inputs": [
        {
          "internalType": "string",
          "name": "label",
          "type": "string"
        },
        {
          "internalType": "uint256",
          "name": "minDrawAmount",
          "type": "uint256"
        }
      ],
      "name": "createPot",
      "outputs": [
        {
          "internalType": "uint256",
          "name": "potId",
          "type": "uint256"
        }
      ],
      "stateMutability": "nonpayable",
      "type": "function"
    },
    {
      "inputs": [
        {
          "internalType": "uint256",
          "name": "potId",
          "type": "uint256"
        },
        {
          "internalType": "address",
          "name": "winner",
          "type": "address"
        },
        {
          "internalType": "uint16",
          "name": "payoutBps",
          "type": "uint16"
        }
      ],
      "name": "drawPotToWinner",
      "outputs": [
        {
          "internalType": "uint256",
          "name": "payout",
          "type": "uint256"
        }
      ],
      "stateMutability": "nonpayable",
      "type": "function"
    },
    {
      "inputs": [
        {
          "internalType": "uint256",
          "name": "potId",
          "type": "uint256"
        },
        {
          "internalType": "uint256",
          "name": "amount",
          "type": "uint256"
        }
      ],
      "name": "fundPot",
      "outputs": [],
      "stateMutability": "nonpayable",
      "type": "function"
    },
    {
      "inputs": [
        {
          "internalType": "uint256",
          "name": "potId",
          "type": "uint256"
        },
        {
          "internalType": "uint256",
          "name": "amount",
          "type": "uint256"
        }
      ],
      "name": "fundPotFromRouter",
      "outputs": [],
      "stateMutability": "nonpayable",
      "type": "function"
    },
    {
      "inputs": [
        {
          "internalType": "address",
          "name": "",
          "type": "address"
        }
      ],
      "name": "lossReporters",
      "outputs": [
        {
          "internalType": "bool",
          "name": "",
          "type": "bool"
        }
      ],
      "stateMutability": "view",
      "type": "function"
    },
    {
      "inputs": [],
      "name": "owner",
      "outputs": [
        {
          "internalType": "address",
          "name": "",
          "type": "address"
        }
      ],
      "stateMutability": "view",
      "type": "function"
    },
    {
      "inputs": [],
      "name": "paymentToken",
      "outputs": [
        {
          "internalType": "contract IERC20",
          "name": "",
          "type": "address"
        }
      ],
      "stateMutability": "view",
      "type": "function"
    },
    {
      "inputs": [],
      "name": "potCount",
      "outputs": [
        {
          "internalType": "uint256",
          "name": "",
          "type": "uint256"
        }
      ],
      "stateMutability": "view",
      "type": "function"
    },
    {
      "inputs": [
        {
          "internalType": "uint256",
          "name": "",
          "type": "uint256"
        }
      ],
      "name": "pots",
      "outputs": [
        {
          "internalType": "string",
          "name": "label",
          "type": "string"
        },
        {
          "internalType": "uint256",
          "name": "balance",
          "type": "uint256"
        },
        {
          "internalType": "uint256",
          "name": "minDrawAmount",
          "type": "uint256"
        },
        {
          "internalType": "uint256",
          "name": "totalFunded",
          "type": "uint256"
        },
        {
          "internalType": "bool",
          "name": "active",
          "type": "bool"
        }
      ],
      "stateMutability": "view",
      "type": "function"
    },
    {
      "inputs": [],
      "name": "renounceOwnership",
      "outputs": [],
      "stateMutability": "nonpayable",
      "type": "function"
    },
    {
      "inputs": [
        {
          "internalType": "uint256",
          "name": "potId",
          "type": "uint256"
        },
        {
          "internalType": "address",
          "name": "account",
          "type": "address"
        },
        {
          "internalType": "uint256",
          "name": "lossUnits",
          "type": "uint256"
        }
      ],
      "name": "reportLoss",
      "outputs": [],
      "stateMutability": "nonpayable",
      "type": "function"
    },
    {
      "inputs": [],
      "name": "router",
      "outputs": [
        {
          "internalType": "address",
          "name": "",
          "type": "address"
        }
      ],
      "stateMutability": "view",
      "type": "function"
    },
    {
      "inputs": [
        {
          "internalType": "address",
          "name": "reporter",
          "type": "address"
        },
        {
          "internalType": "bool",
          "name": "allowed",
          "type": "bool"
        }
      ],
      "name": "setLossReporter",
      "outputs": [],
      "stateMutability": "nonpayable",
      "type": "function"
    },
    {
      "inputs": [
        {
          "internalType": "uint256",
          "name": "potId",
          "type": "uint256"
        },
        {
          "internalType": "bool",
          "name": "active",
          "type": "bool"
        }
      ],
      "name": "setPotActive",
      "outputs": [],
      "stateMutability": "nonpayable",
      "type": "function"
    },
    {
      "inputs": [
        {
          "internalType": "address",
          "name": "_router",
          "type": "address"
        }
      ],
      "name": "setRouter",
      "outputs": [],
      "stateMutability": "nonpayable",
      "type": "function"
    },
    {
      "inputs": [
        {
          "internalType": "uint256",
          "name": "fromPotId",
          "type": "uint256"
        },
        {
          "internalType": "uint256",
          "name": "toPotId",
          "type": "uint256"
        },
        {
          "internalType": "uint256",
          "name": "amount",
          "type": "uint256"
        }
      ],
      "name": "siphon",
      "outputs": [],
      "stateMutability": "nonpayable",
      "type": "function"
    },
    {
      "inputs": [
        {
          "internalType": "address",
          "name": "newOwner",
          "type": "address"
        }
      ],
      "name": "transferOwnership",
      "outputs": [],
      "stateMutability": "nonpayable",
      "type": "function"
    },
    {
      "inputs": [
        {
          "internalType": "uint256",
          "name": "",
          "type": "uint256"
        },
        {
          "internalType": "address",
          "name": "",
          "type": "address"
        }
      ],
      "name": "weightedLossUnits",
      "outputs": [
        {
          "internalType": "uint256",
          "name": "",
          "type": "uint256"
        }
      ],
      "stateMutability": "view",
      "type": "function"
    }
  ],
  "bytecode": "0x60a060405234801561001057600080fd5b5060405161129d38038061129d83398101604081905261002f916100c4565b338061005557604051631e4fbdf760e01b81526000600482015260240160405180910390fd5b61005e81610074565b50600180556001600160a01b03166080526100f4565b600080546001600160a01b038381166001600160a01b0319831681178455604051919092169283917f8be0079c531659141344cd1fd0a4f28419497f9722a3daafe3b4186f6b6457e09190a35050565b6000602082840312156100d657600080fd5b81516001600160a01b03811681146100ed57600080fd5b9392505050565b60805161118061011d60003960008181610194015281816107cd0152610ac701526111806000f3fe608060405234801561001057600080fd5b50600436106101165760003560e01c80638da5cb5b116100a2578063c3c3df4f11610071578063c3c3df4f1461027e578063cf72f230146102a2578063f2fde38b146102ab578063f887ea40146102be578063f96ed5aa146102d157600080fd5b80638da5cb5b1461021c578063ad894df51461022d578063b7bfb7c414610240578063c0d786551461026b57600080fd5b80632f3e5cb8116100e95780632f3e5cb8146101695780633013ce291461018f57806330efd631146101ce578063715018a61461020157806376ef050c1461020957600080fd5b8063012f65ca1461011b578063103ec43d1461013057806329fcf40f146101435780632c4b645f14610156575b600080fd5b61012e610129366004610c67565b6102e4565b005b61012e61013e366004610c67565b61030f565b61012e610151366004610cb3565b61032f565b61012e610164366004610cea565b610396565b61017c610177366004610d1f565b6104a0565b6040519081526020015b60405180910390f35b6101b67f000000000000000000000000000000000000000000000000000000000000000081565b6040516001600160a01b039091168152602001610186565b6101f16101dc366004610d97565b60066020526000908152604090205460ff1681565b6040519015158152602001610186565b61012e6105b3565b61012e610217366004610db2565b6105c7565b6000546001600160a01b03166101b6565b61017c61023b366004610dde565b61069c565b61017c61024e366004610e25565b600560209081526000928352604080842090915290825290205481565b61012e610279366004610d97565b61088f565b61029161028c366004610e51565b6108e1565b604051610186959493929190610e6a565b61017c60035481565b61012e6102b9366004610d97565b61099b565b6002546101b6906001600160a01b031681565b61012e6102df366004610edc565b6109de565b6002546001600160a01b0316331461030f57604051639165520160e01b815260040160405180910390fd5b610317610a14565b610322828233610a3e565b61032b60018055565b5050565b610337610bbe565b6001600160a01b038216600081815260066020908152604091829020805460ff191685151590811790915591519182527f75d229002e2a64497206903a477f0b1bc3900b22b733652f4c3910b46b0af169910160405180910390a25050565b3360009081526006602052604090205460ff166103c657604051636657fb5b60e01b815260040160405180910390fd5b6103cf83610beb565b6000838152600460208190526040909120015460ff1661040257604051635ae1f60160e11b815260040160405180910390fd5b806000036104235760405163162908e360e11b815260040160405180910390fd5b60008381526005602090815260408083206001600160a01b038616845290915281208054839290610455908490610f17565b90915550506040518181526001600160a01b0383169084907f0b21957367904e69c5149e4fc624813d66f2f472ab75a14a62bf430297f5c280906020015b60405180910390a3505050565b60006104aa610bbe565b6003600081546104b990610f30565b91829055506040805160c06020601f8801819004028201810190925260a0810186815292935091829187908790819085018382808284376000920182905250938552505050602080830182905260408084018790526060840183905260016080909401939093528482526004905220815181906105369082610fe8565b50602082015160018201556040808301516002830155606083015160038301556080909201516004909101805460ff19169115159190911790555181907faceb15bb5d0e902c24c2a1123920afc8bc502b2c5aefbc104e41a9535c14819f906105a4908790879087906110a8565b60405180910390a29392505050565b6105bb610bbe565b6105c56000610c17565b565b6105cf610bbe565b6105d883610beb565b6105e182610beb565b8015806105fe575060008381526004602052604090206001015481115b1561061c5760405163162908e360e11b815260040160405180910390fd5b6000838152600460205260408120600101805483929061063d9084906110e1565b909155505060008281526004602052604081206001018054839290610663908490610f17565b9091555050604051818152829084907fed2930c83914cb9e5c07068f17267c64958457e80ce190031ca84f84ba81825190602001610493565b60006106a6610bbe565b6106ae610a14565b6106b784610beb565b6000848152600460208190526040909120015460ff166106ea57604051635ae1f60160e11b815260040160405180910390fd5b61ffff8216158061070057506127108261ffff16115b1561071e5760405163162908e360e11b815260040160405180910390fd5b600084815260046020526040902060010154612710906107439061ffff8516906110f4565b61074d919061110b565b6000858152600460205260409020600201549091508110156107815760405162b00aef60e31b815260040160405180910390fd5b600084815260046020526040812060010180548392906107a29084906110e1565b909155505060405163a9059cbb60e01b81526001600160a01b038481166004830152602482018390527f0000000000000000000000000000000000000000000000000000000000000000169063a9059cbb906044016020604051808303816000875af1158015610816573d6000803e3d6000fd5b505050506040513d601f19601f8201168201806040525081019061083a919061112d565b50826001600160a01b0316847fb6fed967e982121660481ba26fd83a54c943c555347987ae6f147ed4461342c88360405161087791815260200190565b60405180910390a361088860018055565b9392505050565b610897610bbe565b600280546001600160a01b0319166001600160a01b0383169081179091556040517f7aed1d3e8155a07ccf395e44ea3109a0e2d6c9b29bbbe9f142d9790596f4dc8090600090a250565b6004602052600090815260409020805481906108fc90610f5f565b80601f016020809104026020016040519081016040528092919081815260200182805461092890610f5f565b80156109755780601f1061094a57610100808354040283529160200191610975565b820191906000526020600020905b81548152906001019060200180831161095857829003601f168201915b505050506001830154600284015460038501546004909501549394919390925060ff1685565b6109a3610bbe565b6001600160a01b0381166109d257604051631e4fbdf760e01b8152600060048201526024015b60405180910390fd5b6109db81610c17565b50565b6109e6610bbe565b6109ef82610beb565b6000918252600460208190526040909220909101805460ff1916911515919091179055565b600260015403610a3757604051633ee5aeb560e01b815260040160405180910390fd5b6002600155565b610a4783610beb565b6000838152600460208190526040909120015460ff16610a7a57604051635ae1f60160e11b815260040160405180910390fd5b81600003610a9b5760405163162908e360e11b815260040160405180910390fd5b6040516323b872dd60e01b81526001600160a01b038281166004830152306024830152604482018490527f000000000000000000000000000000000000000000000000000000000000000016906323b872dd906064016020604051808303816000875af1158015610b10573d6000803e3d6000fd5b505050506040513d601f19601f82011682018060405250810190610b34919061112d565b5060008381526004602052604081206001018054849290610b56908490610f17565b909155505060008381526004602052604081206003018054849290610b7c908490610f17565b90915550506040518281526001600160a01b0382169084907fa630e8498f159e2cbe3385b2724384bb37cec46b5b4eb61cc6eb7bde9504b98590602001610493565b6000546001600160a01b031633146105c55760405163118cdaa760e01b81523360048201526024016109c9565b801580610bf9575060035481115b156109db5760405163ef6bedf160e01b815260040160405180910390fd5b600080546001600160a01b038381166001600160a01b0319831681178455604051919092169283917f8be0079c531659141344cd1fd0a4f28419497f9722a3daafe3b4186f6b6457e09190a35050565b60008060408385031215610c7a57600080fd5b50508035926020909101359150565b80356001600160a01b0381168114610ca057600080fd5b919050565b80151581146109db57600080fd5b60008060408385031215610cc657600080fd5b610ccf83610c89565b91506020830135610cdf81610ca5565b809150509250929050565b600080600060608486031215610cff57600080fd5b83359250610d0f60208501610c89565b9150604084013590509250925092565b600080600060408486031215610d3457600080fd5b833567ffffffffffffffff80821115610d4c57600080fd5b818601915086601f830112610d6057600080fd5b813581811115610d6f57600080fd5b876020828501011115610d8157600080fd5b6020928301989097509590910135949350505050565b600060208284031215610da957600080fd5b61088882610c89565b600080600060608486031215610dc757600080fd5b505081359360208301359350604090920135919050565b600080600060608486031215610df357600080fd5b83359250610e0360208501610c89565b9150604084013561ffff81168114610e1a57600080fd5b809150509250925092565b60008060408385031215610e3857600080fd5b82359150610e4860208401610c89565b90509250929050565b600060208284031215610e6357600080fd5b5035919050565b60a08152600086518060a084015260005b81811015610e98576020818a0181015160c0868401015201610e7b565b50600060c0828501015260c0601f19601f830116840101915050856020830152846040830152836060830152610ed2608083018415159052565b9695505050505050565b60008060408385031215610eef57600080fd5b823591506020830135610cdf81610ca5565b634e487b7160e01b600052601160045260246000fd5b80820180821115610f2a57610f2a610f01565b92915050565b600060018201610f4257610f42610f01565b5060010190565b634e487b7160e01b600052604160045260246000fd5b600181811c90821680610f7357607f821691505b602082108103610f9357634e487b7160e01b600052602260045260246000fd5b50919050565b601f821115610fe357600081815260208120601f850160051c81016020861015610fc05750805b601f850160051c820191505b81811015610fdf57828155600101610fcc565b5050505b505050565b815167ffffffffffffffff81111561100257611002610f49565b611016816110108454610f5f565b84610f99565b602080601f83116001811461104b57600084156110335750858301515b600019600386901b1c1916600185901b178555610fdf565b600085815260208120601f198616915b8281101561107a5788860151825594840194600190910190840161105b565b50858210156110985787850151600019600388901b60f8161c191681555b5050505050600190811b01905550565b604081528260408201528284606083013760006060848301015260006060601f19601f8601168301019050826020830152949350505050565b81810381811115610f2a57610f2a610f01565b8082028115828204841417610f2a57610f2a610f01565b60008261112857634e487b7160e01b600052601260045260246000fd5b500490565b60006020828403121561113f57600080fd5b815161088881610ca556fea26469706673582212208a79a95ee6d78232ed163ab564a2f9c099189c0cf1c8c0ea5a77f22be5c954c964736f6c63430008140033",
  "linkReferences": {},
  "deployedLinkReferences": {}
}