{
  "_format": "hh-sol-artifact-1",
  "contractName": "AuctionEngine",
  "sourceName": "src/AuctionEngine.sol",
  "abi": [
    {
      "inputs": [
        {
          "internalType": "address",
          "name": "_token",
          "type": "address"
        },
        {
          "internalType": "address",
          "name": "_merkaba",
          "type": "address"
        },
        {
          "internalType": "address",
          "name": "_genesis",
          "type": "address"
        }
      ],
      "stateMutability": "nonpayable",
      "type": "constructor"
    },
    {
      "inputs": [
        {
          "internalType": "address",
          "name": "owner",
          "type": "address"
        }
      ],
      "name": "OwnableInvalidOwner",
      "type": "error"
    },
    {
      "inputs": [
        {
          "internalType": "address",
          "name": "account",
          "type": "address"
        }
      ],
      "name": "OwnableUnauthorizedAccount",
      "type": "error"
    },
    {
      "inputs": [],
      "name": "ReentrancyGuardReentrantCall",
      "type": "error"
    },
    {
      "anonymous": false,
      "inputs": [
        {
          "indexed": true,
          "internalType": "uint256",
          "name": "id",
          "type": "uint256"
        },
        {
          "indexed": false,
          "internalType": "string",
          "name": "agentId",
          "type": "string"
        },
        {
          "indexed": false,
          "internalType": "uint256",
          "name": "startPrice",
          "type": "uint256"
        }
      ],
      "name": "CabinetCreated",
      "type": "event"
    },
    {
      "anonymous": false,
      "inputs": [
        {
          "indexed": true,
          "internalType": "uint256",
          "name": "id",
          "type": "uint256"
        },
        {
          "indexed": true,
          "internalType": "address",
          "name": "player",
          "type": "address"
        },
        {
          "indexed": false,
          "internalType": "uint256",
          "name": "newPrice",
          "type": "uint256"
        },
        {
          "indexed": false,
          "internalType": "uint256",
          "name": "treasuryInjection",
          "type": "uint256"
        }
      ],
      "name": "CoinInserted",
      "type": "event"
    },
    {
      "anonymous": false,
      "inputs": [
        {
          "indexed": true,
          "internalType": "uint256",
          "name": "id",
          "type": "uint256"
        },
        {
          "indexed": true,
          "internalType": "address",
          "name": "winner",
          "type": "address"
        },
        {
          "indexed": false,
          "internalType": "uint256",
          "name": "finalCost",
          "type": "uint256"
        }
      ],
      "name": "JackpotUnlock",
      "type": "event"
    },
    {
      "anonymous": false,
      "inputs": [
        {
          "indexed": true,
          "internalType": "address",
          "name": "previousOwner",
          "type": "address"
        },
        {
          "indexed": true,
          "internalType": "address",
          "name": "newOwner",
          "type": "address"
        }
      ],
      "name": "OwnershipTransferred",
      "type": "event"
    },
    {
      "inputs": [],
      "name": "arcadeToken",
      "outputs": [
        {
          "internalType": "contract IERC20",
          "name": "",
          "type": "address"
        }
      ],
      "stateMutability": "view",
      "type": "function"
    },
    {
      "inputs": [],
      "name": "auctionCount",
      "outputs": [
        {
          "internalType": "uint256",
          "name": "",
          "type": "uint256"
        }
      ],
      "stateMutability": "view",
      "type": "function"
    },
    {
      "inputs": [
        {
          "internalType": "uint256",
          "name": "",
          "type": "uint256"
        }
      ],
      "name": "auctions",
      "outputs": [
        {
          "internalType": "uint256",
          "name": "id",
          "type": "uint256"
        },
        {
          "internalType": "string",
          "name": "agentId",
          "type": "string"
        },
        {
          "internalType": "uint256",
          "name": "currentPrice",
          "type": "uint256"
        },
        {
          "internalType": "uint256",
          "name": "floorPrice",
          "type": "uint256"
        },
        {
          "internalType": "uint256",
          "name": "priceDrop",
          "type": "uint256"
        },
        {
          "internalType": "uint256",
          "name": "bidFee",
          "type": "uint256"
        },
        {
          "internalType": "bool",
          "name": "active",
          "type": "bool"
        },
        {
          "internalType": "address",
          "name": "winner",
          "type": "address"
        },
        {
          "internalType": "address",
          "name": "lastBidder",
          "type": "address"
        },
        {
          "internalType": "uint256",
          "name": "endTime",
          "type": "uint256"
        }
      ],
      "stateMutability": "view",
      "type": "function"
    },
    {
      "inputs": [
        {
          "internalType": "string",
          "name": "_agentId",
          "type": "string"
        },
        {
          "internalType": "uint256",
          "name": "_startPrice",
          "type": "uint256"
        },
        {
          "internalType": "uint256",
          "name": "_floorPrice",
          "type": "uint256"
        },
        {
          "internalType": "uint256",
          "name": "_priceDrop",
          "type": "uint256"
        },
        {
          "internalType": "uint256",
          "name": "_bidFee",
          "type": "uint256"
        }
      ],
      "name": "createCabinet",
      "outputs": [],
      "stateMutability": "nonpayable",
      "type": "function"
    },
    {
      "inputs": [],
      "name": "genesisNode",
      "outputs": [
        {
          "internalType": "contract IGenesisNode",
          "name": "",
          "type": "address"
        }
      ],
      "stateMutability": "view",
      "type": "function"
    },
    {
      "inputs": [
        {
          "internalType": "uint256",
          "name": "_auctionId",
          "type": "uint256"
        }
      ],
      "name": "insertCoin",
      "outputs": [],
      "stateMutability": "nonpayable",
      "type": "function"
    },
    {
      "inputs": [],
      "name": "merkabaCore",
      "outputs": [
        {
          "internalType": "contract IMerkabaCore",
          "name": "",
          "type": "address"
        }
      ],
      "stateMutability": "view",
      "type": "function"
    },
    {
      "inputs": [],
      "name": "owner",
      "outputs": [
        {
          "internalType": "address",
          "name": "",
          "type": "address"
        }
      ],
      "stateMutability": "view",
      "type": "function"
    },
    {
      "inputs": [],
      "name": "renounceOwnership",
      "outputs": [],
      "stateMutability": "nonpayable",
      "type": "function"
    },
    {
      "inputs": [
        {
          "internalType": "address",
          "name": "newOwner",
          "type": "address"
        }
      ],
      "name": "transferOwnership",
      "outputs": [],
      "stateMutability": "nonpayable",
      "type": "function"
    },
    {
      "inputs": [
        {
          "internalType": "uint256",
          "name": "_auctionId",
          "type": "uint256"
        }
      ],
      "name": "unlockAgent",
      "outputs": [],
      "stateMutability": "nonpayable",
      "type": "function"
    },
    {
      "inputs": [
        {
          "internalType": "address",
          "name": "",
          "type": "address"
        }
      ],
      "name": "userVolume",
      "outputs": [
        {
          "internalType": "uint256",
          "name": "",
          "type": "uint256"
        }
      ],
      "stateMutability": "view",
      "type": "function"
    }
  ],
  "bytecode": "0x608060405234801561001057600080fd5b50604051620010a9380380620010a983398101604081905261003191610113565b338061005757604051631e4fbdf760e01b81526000600482015260240160405180910390fd5b610060816100a7565b5060018055600280546001600160a01b039485166001600160a01b031991821617909155600380549385169382169390931790925560048054919093169116179055610156565b600080546001600160a01b038381166001600160a01b0319831681178455604051919092169283917f8be0079c531659141344cd1fd0a4f28419497f9722a3daafe3b4186f6b6457e09190a35050565b80516001600160a01b038116811461010e57600080fd5b919050565b60008060006060848603121561012857600080fd5b610131846100f7565b925061013f602085016100f7565b915061014d604085016100f7565b90509250925092565b610f4380620001666000396000f3fe608060405234801561001057600080fd5b50600436106100b45760003560e01c80638da5cb5b116100715780638da5cb5b146101415780639b565faa14610166578063a6769ef814610179578063b0e1f43614610199578063e533da32146101ac578063f2fde38b146101bf57600080fd5b806309d06a23146100b9578063213216e4146100ce5780632773310f146100e15780632ad71573146100f4578063571a26a014610110578063715018a614610139575b600080fd5b6100cc6100c7366004610b27565b6101d2565b005b6100cc6100dc366004610bf5565b610355565b6100cc6100ef366004610bf5565b6107b6565b6100fd60055481565b6040519081526020015b60405180910390f35b61012361011e366004610bf5565b610932565b6040516101079a99989796959493929190610c54565b6100cc610a1b565b6000546001600160a01b03165b6040516001600160a01b039091168152602001610107565b60045461014e906001600160a01b031681565b6100fd610187366004610cbc565b60076020526000908152604090205481565b60035461014e906001600160a01b031681565b60025461014e906001600160a01b031681565b6100cc6101cd366004610cbc565b610a2f565b6101da610a6a565b600580549060006101ea83610d02565b90915550506040805161014081018252600554815260208101879052908101859052606081018490526080810183905260a08101829052600160c0820152600060e0820181905261010082015261012081016102494262093a80610d1b565b90526005546000908152600660209081526040909120825181559082015160018201906102769082610dbd565b506040828101516002830155606083015160038301556080830151600483015560a083015160058084019190915560c084015160068401805460e08701516001600160a81b0319909116921515610100600160a81b031916929092176101006001600160a01b039384168102919091179091558501516007850180546001600160a01b0319169190921617905561012090930151600890920191909155905490517f2e0a81d58eb33b5b4be284d3d5eb0c923eb1da7f3218ba1717087de1a24913e3906103469088908890610e7d565b60405180910390a25050505050565b61035d610a97565b60008181526006602081905260409091209081015460ff166103b25760405162461bcd60e51b815260206004820152600960248201526823b0b6b29027bb32b960b91b60448201526064015b60405180910390fd5b806008015442106103f45760405162461bcd60e51b815260206004820152600c60248201526b151a5b5948195e1c1a5c995960a21b60448201526064016103a9565b80600301548160020154116104375760405162461bcd60e51b8152602060048201526009602482015268119b1bdbdc881a1a5d60ba1b60448201526064016103a9565b60025460058201546040516323b872dd60e01b815233600482015230602482015260448101919091526001600160a01b03909116906323b872dd906064016020604051808303816000875af1158015610494573d6000803e3d6000fd5b505050506040513d601f19601f820116820180604052508101906104b89190610e9f565b6104f95760405162461bcd60e51b8152602060048201526012602482015271125b9cd95c9d0810dbda5b8811985a5b195960721b60448201526064016103a9565b60058101546000606461050d83600a610ec1565b6105179190610ed8565b905060006064610528846028610ec1565b6105329190610ed8565b6002546004805460405163095ea7b360e01b81526001600160a01b03918216928101929092526024820186905292935091169063095ea7b3906044016020604051808303816000875af115801561058d573d6000803e3d6000fd5b505050506040513d601f19601f820116820180604052508101906105b19190610e9f565b506004805460405163e39c3a8160e01b81529182018490526001600160a01b03169063e39c3a8190602401600060405180830381600087803b1580156105f657600080fd5b505af115801561060a573d6000803e3d6000fd5b505060025460035460405163095ea7b360e01b81526001600160a01b039182166004820152602481018690529116925063095ea7b391506044016020604051808303816000875af1158015610663573d6000803e3d6000fd5b505050506040513d601f19601f820116820180604052508101906106879190610e9f565b50600354604051632f663a8960e11b8152600481018390526001600160a01b0390911690635ecc751290602401600060405180830381600087803b1580156106ce57600080fd5b505af11580156106e2573d6000803e3d6000fd5b50505050836004015484600201541061071857836004015484600201600082825461070d9190610efa565b909155506107239050565b600384015460028501555b600780850180546001600160a01b031916339081179091556005860154600091825260209290925260408120805490919061075f908490610d1b565b909155505060028401546040805191825260208201839052339187917f1c6c013a24f6744f8dd9d086679b48f6a7a2a4a24b7bb1c5e76d3c4038c67524910160405180910390a3505050506107b360018055565b50565b6107be610a97565b60008181526006602081905260409091209081015460ff1661080e5760405162461bcd60e51b815260206004820152600960248201526823b0b6b29027bb32b960b91b60448201526064016103a9565b60028054908201546040516323b872dd60e01b815233600482015230602482015260448101919091526001600160a01b03909116906323b872dd906064016020604051808303816000875af115801561086b573d6000803e3d6000fd5b505050506040513d601f19601f8201168201806040525081019061088f9190610e9f565b6108d05760405162461bcd60e51b8152602060048201526012602482015271496e73756666696369656e742046756e647360701b60448201526064016103a9565b6006810180546001600160a81b0319166101003390810291909117909155600282015460405190815283907fc2d7cfba17717b711d5ebc40ceb705002d63d6c0055766bf742b65bd9a7c49c59060200160405180910390a3506107b360018055565b6006602052600090815260409020805460018201805491929161095490610d34565b80601f016020809104026020016040519081016040528092919081815260200182805461098090610d34565b80156109cd5780601f106109a2576101008083540402835291602001916109cd565b820191906000526020600020905b8154815290600101906020018083116109b057829003601f168201915b50505050600283015460038401546004850154600586015460068701546007880154600890980154969794969395509193909260ff83169261010090046001600160a01b039081169216908a565b610a23610a6a565b610a2d6000610ac1565b565b610a37610a6a565b6001600160a01b038116610a6157604051631e4fbdf760e01b8152600060048201526024016103a9565b6107b381610ac1565b6000546001600160a01b03163314610a2d5760405163118cdaa760e01b81523360048201526024016103a9565b600260015403610aba57604051633ee5aeb560e01b815260040160405180910390fd5b6002600155565b600080546001600160a01b038381166001600160a01b0319831681178455604051919092169283917f8be0079c531659141344cd1fd0a4f28419497f9722a3daafe3b4186f6b6457e09190a35050565b634e487b7160e01b600052604160045260246000fd5b600080600080600060a08688031215610b3f57600080fd5b853567ffffffffffffffff80821115610b5757600080fd5b818801915088601f830112610b6b57600080fd5b813581811115610b7d57610b7d610b11565b604051601f8201601f19908116603f01168101908382118183101715610ba557610ba5610b11565b816040528281528b6020848701011115610bbe57600080fd5b82602086016020830137600060209382018401529b918a01359a505060408901359860608101359850608001359650945050505050565b600060208284031215610c0757600080fd5b5035919050565b6000815180845260005b81811015610c3457602081850181015186830182015201610c18565b506000602082860101526020601f19601f83011685010191505092915050565b60006101408c8352806020840152610c6e8184018d610c0e565b604084019b909b5250506060810197909752608087019590955260a086019390935290151560c08501526001600160a01b0390811660e0850152166101008301526101209091015292915050565b600060208284031215610cce57600080fd5b81356001600160a01b0381168114610ce557600080fd5b9392505050565b634e487b7160e01b600052601160045260246000fd5b600060018201610d1457610d14610cec565b5060010190565b80820180821115610d2e57610d2e610cec565b92915050565b600181811c90821680610d4857607f821691505b602082108103610d6857634e487b7160e01b600052602260045260246000fd5b50919050565b601f821115610db857600081815260208120601f850160051c81016020861015610d955750805b601f850160051c820191505b81811015610db457828155600101610da1565b5050505b505050565b815167ffffffffffffffff811115610dd757610dd7610b11565b610deb81610de58454610d34565b84610d6e565b602080601f831160018114610e205760008415610e085750858301515b600019600386901b1c1916600185901b178555610db4565b600085815260208120601f198616915b82811015610e4f57888601518255948401946001909101908401610e30565b5085821015610e6d5787850151600019600388901b60f8161c191681555b5050505050600190811b01905550565b604081526000610e906040830185610c0e565b90508260208301529392505050565b600060208284031215610eb157600080fd5b81518015158114610ce557600080fd5b8082028115828204841417610d2e57610d2e610cec565b600082610ef557634e487b7160e01b600052601260045260246000fd5b500490565b81810381811115610d2e57610d2e610cec56fea2646970667358221220122a01361308a35835b5be516af31191af4717ee9df5894c0e4d8a287d9f4d7264736f6c63430008140033",
  "linkReferences": {},
  "deployedLinkReferences": {}
}