{
  "_format": "hh-sol-artifact-1",
  "contractName": "GenesisNode",
  "sourceName": "src/GenesisNode.sol",
  "abi": [
    {
      "inputs": [
        {
          "internalType": "address",
          "name": "_paymentToken",
          "type": "address"
        }
      ],
      "stateMutability": "nonpayable",
      "type": "constructor"
    },
    {
      "inputs": [
        {
          "internalType": "address",
          "name": "sender",
          "type": "address"
        },
        {
          "internalType": "uint256",
          "name": "tokenId",
          "type": "uint256"
        },
        {
          "internalType": "address",
          "name": "owner",
          "type": "address"
        }
      ],
      "name": "ERC721IncorrectOwner",
      "type": "error"
    },
    {
      "inputs": [
        {
          "internalType": "address",
          "name": "operator",
          "type": "address"
        },
        {
          "internalType": "uint256",
          "name": "tokenId",
          "type": "uint256"
        }
      ],
      "name": "ERC721InsufficientApproval",
      "type": "error"
    },
    {
      "inputs": [
        {
          "internalType": "address",
          "name": "approver",
          "type": "address"
        }
      ],
      "name": "ERC721InvalidApprover",
      "type": "error"
    },
    {
      "inputs": [
        {
          "internalType": "address",
          "name": "operator",
          "type": "address"
        }
      ],
      "name": "ERC721InvalidOperator",
      "type": "error"
    },
    {
      "inputs": [
        {
          "internalType": "address",
          "name": "owner",
          "type": "address"
        }
      ],
      "name": "ERC721InvalidOwner",
      "type": "error"
    },
    {
      "inputs": [
        {
          "internalType": "address",
          "name": "receiver",
          "type": "address"
        }
      ],
      "name": "ERC721InvalidReceiver",
      "type": "error"
    },
    {
      "inputs": [
        {
          "internalType": "address",
          "name": "sender",
          "type": "address"
        }
      ],
      "name": "ERC721InvalidSender",
      "type": "error"
    },
    {
      "inputs": [
        {
          "internalType": "uint256",
          "name": "tokenId",
          "type": "uint256"
        }
      ],
      "name": "ERC721NonexistentToken",
      "type": "error"
    },
    {
      "inputs": [
        {
          "internalType": "address",
          "name": "owner",
          "type": "address"
        }
      ],
      "name": "OwnableInvalidOwner",
      "type": "error"
    },
    {
      "inputs": [
        {
          "internalType": "address",
          "name": "account",
          "type": "address"
        }
      ],
      "name": "OwnableUnauthorizedAccount",
      "type": "error"
    },
    {
      "inputs": [],
      "name": "ReentrancyGuardReentrantCall",
      "type": "error"
    },
    {
      "anonymous": false,
      "inputs": [
        {
          "indexed": true,
          "internalType": "address",
          "name": "owner",
          "type": "address"
        },
        {
          "indexed": true,
          "internalType": "address",
          "name": "approved",
          "type": "address"
        },
        {
          "indexed": true,
          "internalType": "uint256",
          "name": "tokenId",
          "type": "uint256"
        }
      ],
      "name": "Approval",
      "type": "event"
    },
    {
      "anonymous": false,
      "inputs": [
        {
          "indexed": true,
          "internalType": "address",
          "name": "owner",
          "type": "address"
        },
        {
          "indexed": true,
          "internalType": "address",
          "name": "operator",
          "type": "address"
        },
        {
          "indexed": false,
          "internalType": "bool",
          "name": "approved",
          "type": "bool"
        }
      ],
      "name": "ApprovalForAll",
      "type": "event"
    },
    {
      "anonymous": false,
      "inputs": [
        {
          "indexed": true,
          "internalType": "uint256",
          "name": "tokenId",
          "type": "uint256"
        },
        {
          "indexed": true,
          "internalType": "address",
          "name": "owner",
          "type": "address"
        },
        {
          "indexed": false,
          "internalType": "uint256",
          "name": "amount",
          "type": "uint256"
        }
      ],
      "name": "DividendsClaimed",
      "type": "event"
    },
    {
      "anonymous": false,
      "inputs": [
        {
          "indexed": false,
          "internalType": "string",
          "name": "sourceType",
          "type": "string"
        },
        {
          "indexed": false,
          "internalType": "uint256",
          "name": "totalAmount",
          "type": "uint256"
        }
      ],
      "name": "DividendsDeposited",
      "type": "event"
    },
    {
      "anonymous": false,
      "inputs": [
        {
          "indexed": true,
          "internalType": "address",
          "name": "previousOwner",
          "type": "address"
        },
        {
          "indexed": true,
          "internalType": "address",
          "name": "newOwner",
          "type": "address"
        }
      ],
      "name": "OwnershipTransferred",
      "type": "event"
    },
    {
      "anonymous": false,
      "inputs": [
        {
          "indexed": true,
          "internalType": "address",
          "name": "from",
          "type": "address"
        },
        {
          "indexed": true,
          "internalType": "address",
          "name": "to",
          "type": "address"
        },
        {
          "indexed": true,
          "internalType": "uint256",
          "name": "tokenId",
          "type": "uint256"
        }
      ],
      "name": "Transfer",
      "type": "event"
    },
    {
      "inputs": [],
      "name": "EARTH_NODES",
      "outputs": [
        {
          "internalType": "uint256",
          "name": "",
          "type": "uint256"
        }
      ],
      "stateMutability": "view",
      "type": "function"
    },
    {
      "inputs": [],
      "name": "MAX_SUPPLY",
      "outputs": [
        {
          "internalType": "uint256",
          "name": "",
          "type": "uint256"
        }
      ],
      "stateMutability": "view",
      "type": "function"
    },
    {
      "inputs": [],
      "name": "SUN_NODES",
      "outputs": [
        {
          "internalType": "uint256",
          "name": "",
          "type": "uint256"
        }
      ],
      "stateMutability": "view",
      "type": "function"
    },
    {
      "inputs": [
        {
          "internalType": "address",
          "name": "to",
          "type": "address"
        },
        {
          "internalType": "uint256",
          "name": "tokenId",
          "type": "uint256"
        }
      ],
      "name": "approve",
      "outputs": [],
      "stateMutability": "nonpayable",
      "type": "function"
    },
    {
      "inputs": [
        {
          "internalType": "address",
          "name": "owner",
          "type": "address"
        }
      ],
      "name": "balanceOf",
      "outputs": [
        {
          "internalType": "uint256",
          "name": "",
          "type": "uint256"
        }
      ],
      "stateMutability": "view",
      "type": "function"
    },
    {
      "inputs": [
        {
          "internalType": "uint256",
          "name": "_tokenId",
          "type": "uint256"
        }
      ],
      "name": "claimDividends",
      "outputs": [],
      "stateMutability": "nonpayable",
      "type": "function"
    },
    {
      "inputs": [
        {
          "internalType": "uint256",
          "name": "",
          "type": "uint256"
        }
      ],
      "name": "claimedAmount",
      "outputs": [
        {
          "internalType": "uint256",
          "name": "",
          "type": "uint256"
        }
      ],
      "stateMutability": "view",
      "type": "function"
    },
    {
      "inputs": [
        {
          "internalType": "uint256",
          "name": "_amount",
          "type": "uint256"
        }
      ],
      "name": "depositEarthRewards",
      "outputs": [],
      "stateMutability": "nonpayable",
      "type": "function"
    },
    {
      "inputs": [
        {
          "internalType": "uint256",
          "name": "_amount",
          "type": "uint256"
        }
      ],
      "name": "depositSunRewards",
      "outputs": [],
      "stateMutability": "nonpayable",
      "type": "function"
    },
    {
      "inputs": [
        {
          "internalType": "uint256",
          "name": "tokenId",
          "type": "uint256"
        }
      ],
      "name": "getApproved",
      "outputs": [
        {
          "internalType": "address",
          "name": "",
          "type": "address"
        }
      ],
      "stateMutability": "view",
      "type": "function"
    },
    {
      "inputs": [
        {
          "internalType": "uint256",
          "name": "_tokenId",
          "type": "uint256"
        }
      ],
      "name": "getClaimable",
      "outputs": [
        {
          "internalType": "uint256",
          "name": "",
          "type": "uint256"
        }
      ],
      "stateMutability": "view",
      "type": "function"
    },
    {
      "inputs": [
        {
          "internalType": "address",
          "name": "owner",
          "type": "address"
        },
        {
          "internalType": "address",
          "name": "operator",
          "type": "address"
        }
      ],
      "name": "isApprovedForAll",
      "outputs": [
        {
          "internalType": "bool",
          "name": "",
          "type": "bool"
        }
      ],
      "stateMutability": "view",
      "type": "function"
    },
    {
      "inputs": [],
      "name": "mintGenesis",
      "outputs": [],
      "stateMutability": "nonpayable",
      "type": "function"
    },
    {
      "inputs": [],
      "name": "name",
      "outputs": [
        {
          "internalType": "string",
          "name": "",
          "type": "string"
        }
      ],
      "stateMutability": "view",
      "type": "function"
    },
    {
      "inputs": [],
      "name": "owner",
      "outputs": [
        {
          "internalType": "address",
          "name": "",
          "type": "address"
        }
      ],
      "stateMutability": "view",
      "type": "function"
    },
    {
      "inputs": [
        {
          "internalType": "uint256",
          "name": "tokenId",
          "type": "uint256"
        }
      ],
      "name": "ownerOf",
      "outputs": [
        {
          "internalType": "address",
          "name": "",
          "type": "address"
        }
      ],
      "stateMutability": "view",
      "type": "function"
    },
    {
      "inputs": [],
      "name": "paymentToken",
      "outputs": [
        {
          "internalType": "contract IERC20",
          "name": "",
          "type": "address"
        }
      ],
      "stateMutability": "view",
      "type": "function"
    },
    {
      "inputs": [],
      "name": "renounceOwnership",
      "outputs": [],
      "stateMutability": "nonpayable",
      "type": "function"
    },
    {
      "inputs": [
        {
          "internalType": "address",
          "name": "from",
          "type": "address"
        },
        {
          "internalType": "address",
          "name": "to",
          "type": "address"
        },
        {
          "internalType": "uint256",
          "name": "tokenId",
          "type": "uint256"
        }
      ],
      "name": "safeTransferFrom",
      "outputs": [],
      "stateMutability": "nonpayable",
      "type": "function"
    },
    {
      "inputs": [
        {
          "internalType": "address",
          "name": "from",
          "type": "address"
        },
        {
          "internalType": "address",
          "name": "to",
          "type": "address"
        },
        {
          "internalType": "uint256",
          "name": "tokenId",
          "type": "uint256"
        },
        {
          "internalType": "bytes",
          "name": "data",
          "type": "bytes"
        }
      ],
      "name": "safeTransferFrom",
      "outputs": [],
      "stateMutability": "nonpayable",
      "type": "function"
    },
    {
      "inputs": [
        {
          "internalType": "address",
          "name": "operator",
          "type": "address"
        },
        {
          "internalType": "bool",
          "name": "approved",
          "type": "bool"
        }
      ],
      "name": "setApprovalForAll",
      "outputs": [],
      "stateMutability": "nonpayable",
      "type": "function"
    },
    {
      "inputs": [
        {
          "internalType": "bytes4",
          "name": "interfaceId",
          "type": "bytes4"
        }
      ],
      "name": "supportsInterface",
      "outputs": [
        {
          "internalType": "bool",
          "name": "",
          "type": "bool"
        }
      ],
      "stateMutability": "view",
      "type": "function"
    },
    {
      "inputs": [],
      "name": "symbol",
      "outputs": [
        {
          "internalType": "string",
          "name": "",
          "type": "string"
        }
      ],
      "stateMutability": "view",
      "type": "function"
    },
    {
      "inputs": [
        {
          "internalType": "uint256",
          "name": "tokenId",
          "type": "uint256"
        }
      ],
      "name": "tokenURI",
      "outputs": [
        {
          "internalType": "string",
          "name": "",
          "type": "string"
        }
      ],
      "stateMutability": "view",
      "type": "function"
    },
    {
      "inputs": [],
      "name": "totalEarthRewardsPerNode",
      "outputs": [
        {
          "internalType": "uint256",
          "name": "",
          "type": "uint256"
        }
      ],
      "stateMutability": "view",
      "type": "function"
    },
    {
      "inputs": [],
      "name": "totalSunRewardsPerNode",
      "outputs": [
        {
          "internalType": "uint256",
          "name": "",
          "type": "uint256"
        }
      ],
      "stateMutability": "view",
      "type": "function"
    },
    {
      "inputs": [
        {
          "internalType": "address",
          "name": "from",
          "type": "address"
        },
        {
          "internalType": "address",
          "name": "to",
          "type": "address"
        },
        {
          "internalType": "uint256",
          "name": "tokenId",
          "type": "uint256"
        }
      ],
      "name": "transferFrom",
      "outputs": [],
      "stateMutability": "nonpayable",
      "type": "function"
    },
    {
      "inputs": [
        {
          "internalType": "address",
          "name": "newOwner",
          "type": "address"
        }
      ],
      "name": "transferOwnership",
      "outputs": [],
      "stateMutability": "nonpayable",
      "type": "function"
    }
  ],
  "bytecode": "0x60806040523480156200001157600080fd5b5060405162001bb438038062001bb4833981016040819052620000349162000165565b336040518060400160405280601481526020017f4d65726b6162612047656e65736973204e6f64650000000000000000000000008152506040518060400160405280600681526020016526a596a3a2a760d11b81525081600090816200009b91906200023c565b506001620000aa82826200023c565b5050506001600160a01b038116620000dc57604051631e4fbdf760e01b81526000600482015260240160405180910390fd5b620000e78162000113565b506001600755600880546001600160a01b0319166001600160a01b039290921691909117905562000308565b600680546001600160a01b038381166001600160a01b0319831681179093556040519116919082907f8be0079c531659141344cd1fd0a4f28419497f9722a3daafe3b4186f6b6457e090600090a35050565b6000602082840312156200017857600080fd5b81516001600160a01b03811681146200019057600080fd5b9392505050565b634e487b7160e01b600052604160045260246000fd5b600181811c90821680620001c257607f821691505b602082108103620001e357634e487b7160e01b600052602260045260246000fd5b50919050565b601f8211156200023757600081815260208120601f850160051c81016020861015620002125750805b601f850160051c820191505b8181101562000233578281556001016200021e565b5050505b505050565b81516001600160401b0381111562000258576200025862000197565b6200027081620002698454620001ad565b84620001e9565b602080601f831160018114620002a857600084156200028f5750858301515b600019600386901b1c1916600185901b17855562000233565b600085815260208120601f198616915b82811015620002d957888601518255948401946001909101908401620002b8565b5085821015620002f85787850151600019600388901b60f8161c191681555b5050505050600190811b01905550565b61189c80620003186000396000f3fe608060405234801561001057600080fd5b50600436106101c35760003560e01c806378c3a692116100f9578063bd7047c411610097578063e39c3a8111610071578063e39c3a811461038f578063e985e9c5146103a2578063f2fde38b146103b5578063f46d2518146102d057600080fd5b8063bd7047c414610360578063c87b56dd14610373578063db3ca55c1461038657600080fd5b806395fdd558116100d357806395fdd558146103145780639c7e4a6614610327578063a22cb4651461033a578063b88d4fde1461034d57600080fd5b806378c3a692146102f35780638da5cb5b146102fb57806395d89b411461030c57600080fd5b806332cb6b0c116101665780636352211e116101405780636352211e146102bd578063662aa1f2146102d057806370a08231146102d8578063715018a6146102eb57600080fd5b806332cb6b0c1461029957806342842e0e146102a15780635ccd198b146102b457600080fd5b8063081812fc116101a2578063081812fc14610233578063095ea7b31461025e57806323b872dd146102735780633013ce291461028657600080fd5b80626cb883146101c857806301ffc9a7146101fb57806306fdde031461021e575b600080fd5b6101e86101d6366004611459565b600b6020526000908152604090205481565b6040519081526020015b60405180910390f35b61020e610209366004611488565b6103c8565b60405190151581526020016101f2565b61022661041a565b6040516101f291906114f5565b610246610241366004611459565b6104ac565b6040516001600160a01b0390911681526020016101f2565b61027161026c366004611524565b6104d5565b005b61027161028136600461154e565b6104e4565b600854610246906001600160a01b031681565b6101e8600881565b6102716102af36600461154e565b610574565b6101e8600a5481565b6102466102cb366004611459565b610594565b6101e8600481565b6101e86102e636600461158a565b61059f565b6102716105e7565b6102716105fb565b6006546001600160a01b0316610246565b6102266106a0565b610271610322366004611459565b6106af565b6101e8610335366004611459565b610837565b6102716103483660046115b3565b610889565b61027161035b366004611600565b610894565b61027161036e366004611459565b6108ac565b610226610381366004611459565b610ab1565b6101e860095481565b61027161039d366004611459565b610b26565b61020e6103b03660046116dc565b610c9e565b6102716103c336600461158a565b610ccc565b60006001600160e01b031982166380ac58cd60e01b14806103f957506001600160e01b03198216635b5e139f60e01b145b8061041457506301ffc9a760e01b6001600160e01b03198316145b92915050565b6060600080546104299061170f565b80601f01602080910402602001604051908101604052809291908181526020018280546104559061170f565b80156104a25780601f10610477576101008083540402835291602001916104a2565b820191906000526020600020905b81548152906001019060200180831161048557829003601f168201915b5050505050905090565b60006104b782610d07565b506000828152600460205260409020546001600160a01b0316610414565b6104e0828233610d40565b5050565b6001600160a01b03821661051357604051633250574960e11b8152600060048201526024015b60405180910390fd5b6000610520838333610d4d565b9050836001600160a01b0316816001600160a01b03161461056e576040516364283d7b60e01b81526001600160a01b038086166004830152602482018490528216604482015260640161050a565b50505050565b61058f83838360405180602001604052806000815250610894565b505050565b600061041482610d07565b60006001600160a01b0382166105cb576040516322718ad960e21b81526000600482015260240161050a565b506001600160a01b031660009081526003602052604090205490565b6105ef610e46565b6105f96000610e73565b565b610603610e46565b600160005260026020527fe90b7bceb6e7df5418fb78d8ee546e97c83a08bbccc01a0644d599ccd2a7c2e0546001600160a01b0316156106765760405162461bcd60e51b815260206004820152600e60248201526d105b1c9958591e481b5a5b9d195960921b604482015260640161050a565b60015b6008811161069d5761068b3382610ec5565b806106958161175f565b915050610679565b50565b6060600180546104299061170f565b6106b7610f2a565b600081116106f45760405162461bcd60e51b815260206004820152600a6024820152695a65726f2076616c756560b01b604482015260640161050a565b6008546040516323b872dd60e01b8152336004820152306024820152604481018390526001600160a01b03909116906323b872dd906064016020604051808303816000875af115801561074b573d6000803e3d6000fd5b505050506040513d601f19601f8201168201806040525081019061076f9190611778565b6107ad5760405162461bcd60e51b815260206004820152600f60248201526e151c985b9cd9995c8819985a5b1959608a1b604482015260640161050a565b60006107ba600483611795565b905080600a60008282546107ce91906117b7565b909155505060408051818152600b918101919091526a115054951217d65251531160aa1b6060820152602081018390527f5f47f8d18c9b20cb10c34d7d9d3e409cf6882e38e74a22de27bff105ccc71bb4906080015b60405180910390a15061069d6001600755565b60006004821161085d576000828152600b602052604090205460095461041491906117ca565b60088211610881576000828152600b6020526040902054600a5461041491906117ca565b506000919050565b6104e0338383610f54565b61089f8484846104e4565b61056e3385858585610ff3565b6108b4610f2a565b336108be82610594565b6001600160a01b0316146109045760405162461bcd60e51b815260206004820152600d60248201526c2737ba103a34329037bbb732b960991b604482015260640161050a565b600060048211610931576000828152600b602052604090205460095461092a91906117ca565b9050610958565b60088211610958576000828152600b6020526040902054600a5461095591906117ca565b90505b6000811161099b5760405162461bcd60e51b815260206004820152601060248201526f4e6f7468696e6720746f20636c61696d60801b604482015260640161050a565b6000828152600b6020526040812080548392906109b99084906117b7565b909155505060085460405163a9059cbb60e01b8152336004820152602481018390526001600160a01b039091169063a9059cbb906044016020604051808303816000875af1158015610a0f573d6000803e3d6000fd5b505050506040513d601f19601f82011682018060405250810190610a339190611778565b610a6f5760405162461bcd60e51b815260206004820152600d60248201526c14185e5bdd5d0819985a5b1959609a1b604482015260640161050a565b604051818152339083907f6f7ca1e26318ba002eaad671db8b3dac8c655cb4998fe4f30e25c1506baf24039060200160405180910390a35061069d6001600755565b6060610abc82610d07565b506000610ad460408051602081019091526000815290565b90506000815111610af45760405180602001604052806000815250610b1f565b80610afe8461111e565b604051602001610b0f9291906117dd565b6040516020818303038152906040525b9392505050565b610b2e610f2a565b60008111610b6b5760405162461bcd60e51b815260206004820152600a6024820152695a65726f2076616c756560b01b604482015260640161050a565b6008546040516323b872dd60e01b8152336004820152306024820152604481018390526001600160a01b03909116906323b872dd906064016020604051808303816000875af1158015610bc2573d6000803e3d6000fd5b505050506040513d601f19601f82011682018060405250810190610be69190611778565b610c245760405162461bcd60e51b815260206004820152600f60248201526e151c985b9cd9995c8819985a5b1959608a1b604482015260640161050a565b6000610c31600483611795565b90508060096000828254610c4591906117b7565b909155505060408051818152600a918101919091526953554e5f564f4c554d4560b01b6060820152602081018390527f5f47f8d18c9b20cb10c34d7d9d3e409cf6882e38e74a22de27bff105ccc71bb490608001610824565b6001600160a01b03918216600090815260056020908152604080832093909416825291909152205460ff1690565b610cd4610e46565b6001600160a01b038116610cfe57604051631e4fbdf760e01b81526000600482015260240161050a565b61069d81610e73565b6000818152600260205260408120546001600160a01b03168061041457604051637e27328960e01b81526004810184905260240161050a565b61058f83838360016111b1565b6000828152600260205260408120546001600160a01b0390811690831615610d7a57610d7a8184866112b7565b6001600160a01b03811615610db857610d976000856000806111b1565b6001600160a01b038116600090815260036020526040902080546000190190555b6001600160a01b03851615610de7576001600160a01b0385166000908152600360205260409020805460010190555b60008481526002602052604080822080546001600160a01b0319166001600160a01b0389811691821790925591518793918516917fddf252ad1be2c89b69c2b068fc378daa952ba7f163c4a11628f55a4df523b3ef91a4949350505050565b6006546001600160a01b031633146105f95760405163118cdaa760e01b815233600482015260240161050a565b600680546001600160a01b038381166001600160a01b0319831681179093556040519116919082907f8be0079c531659141344cd1fd0a4f28419497f9722a3daafe3b4186f6b6457e090600090a35050565b6001600160a01b038216610eef57604051633250574960e11b81526000600482015260240161050a565b6000610efd83836000610d4d565b90506001600160a01b0381161561058f576040516339e3563760e11b81526000600482015260240161050a565b600260075403610f4d57604051633ee5aeb560e01b815260040160405180910390fd5b6002600755565b6001600160a01b038216610f8657604051630b61174360e31b81526001600160a01b038316600482015260240161050a565b6001600160a01b03838116600081815260056020908152604080832094871680845294825291829020805460ff191686151590811790915591519182527f17307eab39ab6107e8899845ad3d59bd9653f200f220920489ca2b5937696c31910160405180910390a3505050565b6001600160a01b0383163b1561111757604051630a85bd0160e11b81526001600160a01b0384169063150b7a029061103590889088908790879060040161180c565b6020604051808303816000875af1925050508015611070575060408051601f3d908101601f1916820190925261106d91810190611849565b60015b6110d9573d80801561109e576040519150601f19603f3d011682016040523d82523d6000602084013e6110a3565b606091505b5080516000036110d157604051633250574960e11b81526001600160a01b038516600482015260240161050a565b805160208201fd5b6001600160e01b03198116630a85bd0160e11b1461111557604051633250574960e11b81526001600160a01b038516600482015260240161050a565b505b5050505050565b6060600061112b8361131b565b600101905060008167ffffffffffffffff81111561114b5761114b6115ea565b6040519080825280601f01601f191660200182016040528015611175576020820181803683370190505b5090508181016020015b600019016f181899199a1a9b1b9c1cb0b131b232b360811b600a86061a8153600a850494508461117f57509392505050565b80806111c557506001600160a01b03821615155b156112875760006111d584610d07565b90506001600160a01b038316158015906112015750826001600160a01b0316816001600160a01b031614155b801561121457506112128184610c9e565b155b1561123d5760405163a9fbf51f60e01b81526001600160a01b038416600482015260240161050a565b81156112855783856001600160a01b0316826001600160a01b03167f8c5be1e5ebec7d5bd14f71427d1e84f3dd0314c0f7b2291e5b200ac8c7c3b92560405160405180910390a45b505b5050600090815260046020526040902080546001600160a01b0319166001600160a01b0392909216919091179055565b6112c28383836113f3565b61058f576001600160a01b0383166112f057604051637e27328960e01b81526004810182905260240161050a565b60405163177e802f60e01b81526001600160a01b03831660048201526024810182905260440161050a565b60008072184f03e93ff9f4daa797ed6e38ed64bf6a1f0160401b831061135a5772184f03e93ff9f4daa797ed6e38ed64bf6a1f0160401b830492506040015b6d04ee2d6d415b85acef81000000008310611386576d04ee2d6d415b85acef8100000000830492506020015b662386f26fc1000083106113a457662386f26fc10000830492506010015b6305f5e10083106113bc576305f5e100830492506008015b61271083106113d057612710830492506004015b606483106113e2576064830492506002015b600a83106104145760010192915050565b60006001600160a01b038316158015906114515750826001600160a01b0316846001600160a01b0316148061142d575061142d8484610c9e565b8061145157506000828152600460205260409020546001600160a01b038481169116145b949350505050565b60006020828403121561146b57600080fd5b5035919050565b6001600160e01b03198116811461069d57600080fd5b60006020828403121561149a57600080fd5b8135610b1f81611472565b60005b838110156114c05781810151838201526020016114a8565b50506000910152565b600081518084526114e18160208601602086016114a5565b601f01601f19169290920160200192915050565b602081526000610b1f60208301846114c9565b80356001600160a01b038116811461151f57600080fd5b919050565b6000806040838503121561153757600080fd5b61154083611508565b946020939093013593505050565b60008060006060848603121561156357600080fd5b61156c84611508565b925061157a60208501611508565b9150604084013590509250925092565b60006020828403121561159c57600080fd5b610b1f82611508565b801515811461069d57600080fd5b600080604083850312156115c657600080fd5b6115cf83611508565b915060208301356115df816115a5565b809150509250929050565b634e487b7160e01b600052604160045260246000fd5b6000806000806080858703121561161657600080fd5b61161f85611508565b935061162d60208601611508565b925060408501359150606085013567ffffffffffffffff8082111561165157600080fd5b818701915087601f83011261166557600080fd5b813581811115611677576116776115ea565b604051601f8201601f19908116603f0116810190838211818310171561169f5761169f6115ea565b816040528281528a60208487010111156116b857600080fd5b82602086016020830137600060208483010152809550505050505092959194509250565b600080604083850312156116ef57600080fd5b6116f883611508565b915061170660208401611508565b90509250929050565b600181811c9082168061172357607f821691505b60208210810361174357634e487b7160e01b600052602260045260246000fd5b50919050565b634e487b7160e01b600052601160045260246000fd5b60006001820161177157611771611749565b5060010190565b60006020828403121561178a57600080fd5b8151610b1f816115a5565b6000826117b257634e487b7160e01b600052601260045260246000fd5b500490565b8082018082111561041457610414611749565b8181038181111561041457610414611749565b600083516117ef8184602088016114a5565b8351908301906118038183602088016114a5565b01949350505050565b6001600160a01b038581168252841660208201526040810183905260806060820181905260009061183f908301846114c9565b9695505050505050565b60006020828403121561185b57600080fd5b8151610b1f8161147256fea2646970667358221220562bb32b70bce2dc6f125bce10f4f60ee7600fdcd576651009a0434b09db2a8664736f6c63430008140033",
  "linkReferences": {},
  "deployedLinkReferences": {}
}