{
  "src/PTPrizeHookRouter.sol": {
    "PTPrizeHookRouter": {
      "abi": [
        {
          "inputs": [
            {
              "internalType": "address",
              "name": "_prizeToken",
              "type": "address"
            },
            {
              "internalType": "address",
              "name": "_sidepotManager",
              "type": "address"
            },
            {
              "internalType": "address",
              "name": "_prizeVault",
              "type": "address"
            },
            {
              "internalType": "address",
              "name": "_treasury",
              "type": "address"
            },
            {
              "internalType": "uint256",
              "name": "_sidepotId",
              "type": "uint256"
            },
            {
              "internalType": "uint16",
              "name": "_sidepotBps",
              "type": "uint16"
            },
            {
              "internalType": "uint16",
              "name": "_treasuryBps",
              "type": "uint16"
            }
          ],
          "stateMutability": "nonpayable",
          "type": "constructor"
        },
        {
          "inputs": [],
          "name": "InvalidAddress",
          "type": "error"
        },
        {
          "inputs": [],
          "name": "InvalidSplit",
          "type": "error"
        },
        {
          "inputs": [],
          "name": "NotPrizeVault",
          "type": "error"
        },
        {
          "inputs": [
            {
              "internalType": "address",
              "name": "owner",
              "type": "address"
            }
          ],
          "name": "OwnableInvalidOwner",
          "type": "error"
        },
        {
          "inputs": [
            {
              "internalType": "address",
              "name": "account",
              "type": "address"
            }
          ],
          "name": "OwnableUnauthorizedAccount",
          "type": "error"
        },
        {
          "inputs": [],
          "name": "ReentrancyGuardReentrantCall",
          "type": "error"
        },
        {
          "anonymous": false,
          "inputs": [
            {
              "indexed": true,
              "internalType": "address",
              "name": "previousOwner",
              "type": "address"
            },
            {
              "indexed": true,
              "internalType": "address",
              "name": "newOwner",
              "type": "address"
            }
          ],
          "name": "OwnershipTransferred",
          "type": "event"
        },
        {
          "anonymous": false,
          "inputs": [
            {
              "indexed": true,
              "internalType": "address",
              "name": "winner",
              "type": "address"
            },
            {
              "indexed": false,
              "internalType": "uint256",
              "name": "prizeAmount",
              "type": "uint256"
            },
            {
              "indexed": false,
              "internalType": "uint256",
              "name": "winnerAmount",
              "type": "uint256"
            },
            {
              "indexed": false,
              "internalType": "uint256",
              "name": "treasuryAmount",
              "type": "uint256"
            },
            {
              "indexed": false,
              "internalType": "uint256",
              "name": "sidepotAmount",
              "type": "uint256"
            }
          ],
          "name": "PrizeRouted",
          "type": "event"
        },
        {
          "anonymous": false,
          "inputs": [
            {
              "indexed": true,
              "internalType": "address",
              "name": "prizeVault",
              "type": "address"
            }
          ],
          "name": "PrizeVaultUpdated",
          "type": "event"
        },
        {
          "anonymous": false,
          "inputs": [
            {
              "indexed": false,
              "internalType": "uint256",
              "name": "sidepotId",
              "type": "uint256"
            }
          ],
          "name": "SidepotIdUpdated",
          "type": "event"
        },
        {
          "anonymous": false,
          "inputs": [
            {
              "indexed": true,
              "internalType": "address",
              "name": "sidepotManager",
              "type": "address"
            }
          ],
          "name": "SidepotManagerUpdated",
          "type": "event"
        },
        {
          "anonymous": false,
          "inputs": [
            {
              "indexed": false,
              "internalType": "uint16",
              "name": "sidepotBps",
              "type": "uint16"
            },
            {
              "indexed": false,
              "internalType": "uint16",
              "name": "treasuryBps",
              "type": "uint16"
            }
          ],
          "name": "SplitConfigUpdated",
          "type": "event"
        },
        {
          "anonymous": false,
          "inputs": [
            {
              "indexed": true,
              "internalType": "address",
              "name": "treasury",
              "type": "address"
            }
          ],
          "name": "TreasuryUpdated",
          "type": "event"
        },
        {
          "inputs": [
            {
              "internalType": "address",
              "name": "",
              "type": "address"
            },
            {
              "internalType": "uint8",
              "name": "",
              "type": "uint8"
            },
            {
              "internalType": "uint32",
              "name": "",
              "type": "uint32"
            },
            {
              "internalType": "uint256",
              "name": "prizeAmount",
              "type": "uint256"
            },
            {
              "internalType": "address",
              "name": "",
              "type": "address"
            },
            {
              "internalType": "bytes",
              "name": "data",
              "type": "bytes"
            }
          ],
          "name": "afterClaimPrize",
          "outputs": [],
          "stateMutability": "nonpayable",
          "type": "function"
        },
        {
          "inputs": [
            {
              "internalType": "address",
              "name": "winner",
              "type": "address"
            },
            {
              "internalType": "uint8",
              "name": "",
              "type": "uint8"
            },
            {
              "internalType": "uint32",
              "name": "",
              "type": "uint32"
            },
            {
              "internalType": "uint96",
              "name": "",
              "type": "uint96"
            },
            {
              "internalType": "address",
              "name": "",
              "type": "address"
            }
          ],
          "name": "beforeClaimPrize",
          "outputs": [
            {
              "internalType": "address",
              "name": "prizeRecipient",
              "type": "address"
            },
            {
              "internalType": "bytes",
              "name": "data",
              "type": "bytes"
            }
          ],
          "stateMutability": "view",
          "type": "function"
        },
        {
          "inputs": [],
          "name": "owner",
          "outputs": [
            {
              "internalType": "address",
              "name": "",
              "type": "address"
            }
          ],
          "stateMutability": "view",
          "type": "function"
        },
        {
          "inputs": [],
          "name": "prizeToken",
          "outputs": [
            {
              "internalType": "contract IERC20",
              "name": "",
              "type": "address"
            }
          ],
          "stateMutability": "view",
          "type": "function"
        },
        {
          "inputs": [],
          "name": "prizeVault",
          "outputs": [
            {
              "internalType": "address",
              "name": "",
              "type": "address"
            }
          ],
          "stateMutability": "view",
          "type": "function"
        },
        {
          "inputs": [],
          "name": "renounceOwnership",
          "outputs": [],
          "stateMutability": "nonpayable",
          "type": "function"
        },
        {
          "inputs": [
            {
              "internalType": "address",
              "name": "_prizeVault",
              "type": "address"
            }
          ],
          "name": "setPrizeVault",
          "outputs": [],
          "stateMutability": "nonpayable",
          "type": "function"
        },
        {
          "inputs": [
            {
              "internalType": "uint256",
              "name": "_sidepotId",
              "type": "uint256"
            }
          ],
          "name": "setSidepotId",
          "outputs": [],
          "stateMutability": "nonpayable",
          "type": "function"
        },
        {
          "inputs": [
            {
              "internalType": "address",
              "name": "_sidepotManager",
              "type": "address"
            }
          ],
          "name": "setSidepotManager",
          "outputs": [],
          "stateMutability": "nonpayable",
          "type": "function"
        },
        {
          "inputs": [
            {
              "internalType": "uint16",
              "name": "_sidepotBps",
              "type": "uint16"
            },
            {
              "internalType": "uint16",
              "name": "_treasuryBps",
              "type": "uint16"
            }
          ],
          "name": "setSplitConfig",
          "outputs": [],
          "stateMutability": "nonpayable",
          "type": "function"
        },
        {
          "inputs": [
            {
              "internalType": "address",
              "name": "_treasury",
              "type": "address"
            }
          ],
          "name": "setTreasury",
          "outputs": [],
          "stateMutability": "nonpayable",
          "type": "function"
        },
        {
          "inputs": [],
          "name": "sidepotBps",
          "outputs": [
            {
              "internalType": "uint16",
              "name": "",
              "type": "uint16"
            }
          ],
          "stateMutability": "view",
          "type": "function"
        },
        {
          "inputs": [],
          "name": "sidepotId",
          "outputs": [
            {
              "internalType": "uint256",
              "name": "",
              "type": "uint256"
            }
          ],
          "stateMutability": "view",
          "type": "function"
        },
        {
          "inputs": [],
          "name": "sidepotManager",
          "outputs": [
            {
              "internalType": "contract ISidepotManager",
              "name": "",
              "type": "address"
            }
          ],
          "stateMutability": "view",
          "type": "function"
        },
        {
          "inputs": [
            {
              "internalType": "address",
              "name": "newOwner",
              "type": "address"
            }
          ],
          "name": "transferOwnership",
          "outputs": [],
          "stateMutability": "nonpayable",
          "type": "function"
        },
        {
          "inputs": [],
          "name": "treasury",
          "outputs": [
            {
              "internalType": "address",
              "name": "",
              "type": "address"
            }
          ],
          "stateMutability": "view",
          "type": "function"
        },
        {
          "inputs": [],
          "name": "treasuryBps",
          "outputs": [
            {
              "internalType": "uint16",
              "name": "",
              "type": "uint16"
            }
          ],
          "stateMutability": "view",
          "type": "function"
        }
      ],
      "evm": {
        "bytecode": {
          "linkReferences": {},
          "object": "60a06040523480156200001157600080fd5b5060405162000f8e38038062000f8e8339810160408190526200003491620001e5565b33806200005b57604051631e4fbdf760e01b81526000600482015260240160405180910390fd5b620000668162000165565b50600180556001600160a01b03871615806200008957506001600160a01b038616155b806200009c57506001600160a01b038416155b15620000bb5760405163e6c4247b60e01b815260040160405180910390fd5b612710620000ca828462000271565b61ffff161115620000ee5760405163bcd55b0f60e01b815260040160405180910390fd5b6001600160a01b03968716608052600280549688166001600160a01b03199788161790556003805495881695871695909517909455600480549390961692909416919091179093556005929092556006805461ffff938416620100000263ffffffff199091169390921692909217179055620002a2565b600080546001600160a01b038381166001600160a01b0319831681178455604051919092169283917f8be0079c531659141344cd1fd0a4f28419497f9722a3daafe3b4186f6b6457e09190a35050565b80516001600160a01b0381168114620001cd57600080fd5b919050565b805161ffff81168114620001cd57600080fd5b600080600080600080600060e0888a0312156200020157600080fd5b6200020c88620001b5565b96506200021c60208901620001b5565b95506200022c60408901620001b5565b94506200023c60608901620001b5565b9350608088015192506200025360a08901620001d2565b91506200026360c08901620001d2565b905092959891949750929550565b61ffff8181168382160190808211156200029b57634e487b7160e01b600052601160045260246000fd5b5092915050565b608051610cbb620002d36000396000818161023f01528181610593015281816106a3015261073e0152610cbb6000f3fe608060405234801561001057600080fd5b506004361061010b5760003560e01c8063715018a6116100a2578063b4db727f11610071578063b4db727f14610219578063d0ef024a1461023a578063d44c6da314610261578063f0f4426014610274578063f2fde38b1461028757600080fd5b8063715018a6146101da57806378f08a8a146101e257806381f60fd0146101f55780638da5cb5b1461020857600080fd5b8063676a3a97116100de578063676a3a9714610193578063691e62e9146101a65780636b609012146101b45780636b93051e146101c757600080fd5b80633726dc92146101105780634dc10ea11461012c57806361d027b31461015357806367442df71461017e575b600080fd5b61011960055481565b6040519081526020015b60405180910390f35b6006546101409062010000900461ffff1681565b60405161ffff9091168152602001610123565b600454610166906001600160a01b031681565b6040516001600160a01b039091168152602001610123565b61019161018c366004610979565b61029a565b005b600354610166906001600160a01b031681565b6006546101409061ffff1681565b600254610166906001600160a01b031681565b6101916101d53660046109a7565b6102dd565b610191610356565b6101916101f03660046109e2565b61036a565b6101916102033660046109a7565b610403565b6000546001600160a01b0316610166565b61022c610227366004610a3a565b610455565b604051610123929190610ab8565b6101667f000000000000000000000000000000000000000000000000000000000000000081565b61019161026f366004610b16565b6104b8565b6101916102823660046109a7565b610816565b6101916102953660046109a7565b61088f565b6102a26108d2565b60058190556040518181527f5d064ee1eea0d8f31204a89c067937df713bab3354e4b16ad92e39b6fbd620349060200160405180910390a150565b6102e56108d2565b6001600160a01b03811661030c5760405163e6c4247b60e01b815260040160405180910390fd5b600280546001600160a01b0319166001600160a01b0383169081179091556040517f4cec6598d60150d0980e16636358815d13fc1441812eaa6ffa990d0ab951238d90600090a250565b61035e6108d2565b61036860006108ff565b565b6103726108d2565b61271061037f8284610bef565b61ffff1611156103a25760405163bcd55b0f60e01b815260040160405180910390fd5b6006805461ffff84811663ffffffff19909216821762010000918516918202179092556040805191825260208201929092527fb0fecb23d7cb62cbe2983f308a247587d4f1ad1a89a7f9c9a1c98a01b4571396910160405180910390a15050565b61040b6108d2565b600380546001600160a01b0319166001600160a01b0383169081179091556040517f68dc2ac936343e767f9487005290857aa94c19f7a0e8215100c8cdf42d6793b990600090a250565b6003546000906060906001600160a01b0316331461048657604051631c53502560e31b815260040160405180910390fd5b604080516001600160a01b03891660208201523093500160405160208183030381529060405290509550959350505050565b6003546001600160a01b031633146104e357604051631c53502560e31b815260040160405180910390fd5b6104eb61094f565b60006104f9828401846109a7565b600654909150600090612710906105149061ffff1688610c11565b61051e9190610c2e565b6006549091506000906127109061053f9062010000900461ffff1689610c11565b6105499190610c2e565b9050600081610558848a610c50565b6105629190610c50565b905082156106715760025460405163095ea7b360e01b81526001600160a01b039182166004820152602481018590527f00000000000000000000000000000000000000000000000000000000000000009091169063095ea7b3906044016020604051808303816000875af11580156105de573d6000803e3d6000fd5b505050506040513d601f19601f820116820180604052508101906106029190610c63565b506002546005546040516297b2e560e11b81526001600160a01b039092169163012f65ca9161063e918790600401918252602082015260400190565b600060405180830381600087803b15801561065857600080fd5b505af115801561066c573d6000803e3d6000fd5b505050505b8115610712576004805460405163a9059cbb60e01b81526001600160a01b0391821692810192909252602482018490527f0000000000000000000000000000000000000000000000000000000000000000169063a9059cbb906044016020604051808303816000875af11580156106ec573d6000803e3d6000fd5b505050506040513d601f19601f820116820180604052508101906107109190610c63565b505b80156107ad5760405163a9059cbb60e01b81526001600160a01b038581166004830152602482018390527f0000000000000000000000000000000000000000000000000000000000000000169063a9059cbb906044016020604051808303816000875af1158015610787573d6000803e3d6000fd5b505050506040513d601f19601f820116820180604052508101906107ab9190610c63565b505b6040805189815260208101839052908101839052606081018490526001600160a01b038516907f86de031c17c104a31c8fc96cb144c18b2230e4dba63cb965ef0c732ffc8668c49060800160405180910390a25050505061080d60018055565b50505050505050565b61081e6108d2565b6001600160a01b0381166108455760405163e6c4247b60e01b815260040160405180910390fd5b600480546001600160a01b0319166001600160a01b0383169081179091556040517f7dae230f18360d76a040c81f050aa14eb9d6dc7901b20fc5d855e2a20fe814d190600090a250565b6108976108d2565b6001600160a01b0381166108c657604051631e4fbdf760e01b8152600060048201526024015b60405180910390fd5b6108cf816108ff565b50565b6000546001600160a01b031633146103685760405163118cdaa760e01b81523360048201526024016108bd565b600080546001600160a01b038381166001600160a01b0319831681178455604051919092169283917f8be0079c531659141344cd1fd0a4f28419497f9722a3daafe3b4186f6b6457e09190a35050565b60026001540361097257604051633ee5aeb560e01b815260040160405180910390fd5b6002600155565b60006020828403121561098b57600080fd5b5035919050565b6001600160a01b03811681146108cf57600080fd5b6000602082840312156109b957600080fd5b81356109c481610992565b9392505050565b803561ffff811681146109dd57600080fd5b919050565b600080604083850312156109f557600080fd5b6109fe836109cb565b9150610a0c602084016109cb565b90509250929050565b803560ff811681146109dd57600080fd5b803563ffffffff811681146109dd57600080fd5b600080600080600060a08688031215610a5257600080fd5b8535610a5d81610992565b9450610a6b60208701610a15565b9350610a7960408701610a26565b925060608601356bffffffffffffffffffffffff81168114610a9a57600080fd5b91506080860135610aaa81610992565b809150509295509295909350565b60018060a01b038316815260006020604081840152835180604085015260005b81811015610af457858101830151858201606001528201610ad8565b506000606082860101526060601f19601f830116850101925050509392505050565b600080600080600080600060c0888a031215610b3157600080fd5b8735610b3c81610992565b9650610b4a60208901610a15565b9550610b5860408901610a26565b9450606088013593506080880135610b6f81610992565b925060a088013567ffffffffffffffff80821115610b8c57600080fd5b818a0191508a601f830112610ba057600080fd5b813581811115610baf57600080fd5b8b6020828501011115610bc157600080fd5b60208301945080935050505092959891949750929550565b634e487b7160e01b600052601160045260246000fd5b61ffff818116838216019080821115610c0a57610c0a610bd9565b5092915050565b8082028115828204841417610c2857610c28610bd9565b92915050565b600082610c4b57634e487b7160e01b600052601260045260246000fd5b500490565b81810381811115610c2857610c28610bd9565b600060208284031215610c7557600080fd5b815180151581146109c457600080fdfea26469706673582212207820cf05d3762cdf6cec38c9ff0a8fad7fd66151ddb1b2bf074d0827cad7543864736f6c63430008140033",
          "opcodes": "PUSH1 0xA0 PUSH1 0x40 MSTORE CALLVALUE DUP1 ISZERO PUSH3 0x11 JUMPI PUSH1 0x0 DUP1 REVERT JUMPDEST POP PUSH1 0x40 MLOAD PUSH3 0xF8E CODESIZE SUB DUP1 PUSH3 0xF8E DUP4 CODECOPY DUP2 ADD PUSH1 0x40 DUP2 SWAP1 MSTORE PUSH3 0x34 SWAP2 PUSH3 0x1E5 JUMP JUMPDEST CALLER DUP1 PUSH3 0x5B JUMPI PUSH1 0x40 MLOAD PUSH4 0x1E4FBDF7 PUSH1 0xE0 SHL DUP2 MSTORE PUSH1 0x0 PUSH1 0x4 DUP3 ADD MSTORE PUSH1 0x24 ADD PUSH1 0x40 MLOAD DUP1 SWAP2 SUB SWAP1 REVERT JUMPDEST PUSH3 0x66 DUP2 PUSH3 0x165 JUMP JUMPDEST POP PUSH1 0x1 DUP1 SSTORE PUSH1 0x1 PUSH1 0x1 PUSH1 0xA0 SHL SUB DUP8 AND ISZERO DUP1 PUSH3 0x89 JUMPI POP PUSH1 0x1 PUSH1 0x1 PUSH1 0xA0 SHL SUB DUP7 AND ISZERO JUMPDEST DUP1 PUSH3 0x9C JUMPI POP PUSH1 0x1 PUSH1 0x1 PUSH1 0xA0 SHL SUB DUP5 AND ISZERO JUMPDEST ISZERO PUSH3 0xBB JUMPI PUSH1 0x40 MLOAD PUSH4 0xE6C4247B PUSH1 0xE0 SHL DUP2 MSTORE PUSH1 0x4 ADD PUSH1 0x40 MLOAD DUP1 SWAP2 SUB SWAP1 REVERT JUMPDEST PUSH2 0x2710 PUSH3 0xCA DUP3 DUP5 PUSH3 0x271 JUMP JUMPDEST PUSH2 0xFFFF AND GT ISZERO PUSH3 0xEE JUMPI PUSH1 0x40 MLOAD PUSH4 0xBCD55B0F PUSH1 0xE0 SHL DUP2 MSTORE PUSH1 0x4 ADD PUSH1 0x40 MLOAD DUP1 SWAP2 SUB SWAP1 REVERT JUMPDEST PUSH1 0x1 PUSH1 0x1 PUSH1 0xA0 SHL SUB SWAP7 DUP8 AND PUSH1 0x80 MSTORE PUSH1 0x2 DUP1 SLOAD SWAP7 DUP9 AND PUSH1 0x1 PUSH1 0x1 PUSH1 0xA0 SHL SUB NOT SWAP8 DUP9 AND OR SWAP1 SSTORE PUSH1 0x3 DUP1 SLOAD SWAP6 DUP9 AND SWAP6 DUP8 AND SWAP6 SWAP1 SWAP6 OR SWAP1 SWAP5 SSTORE PUSH1 0x4 DUP1 SLOAD SWAP4 SWAP1 SWAP7 AND SWAP3 SWAP1 SWAP5 AND SWAP2 SWAP1 SWAP2 OR SWAP1 SWAP4 SSTORE PUSH1 0x5 SWAP3 SWAP1 SWAP3 SSTORE PUSH1 0x6 DUP1 SLOAD PUSH2 0xFFFF SWAP4 DUP5 AND PUSH3 0x10000 MUL PUSH4 0xFFFFFFFF NOT SWAP1 SWAP2 AND SWAP4 SWAP1 SWAP3 AND SWAP3 SWAP1 SWAP3 OR OR SWAP1 SSTORE PUSH3 0x2A2 JUMP JUMPDEST PUSH1 0x0 DUP1 SLOAD PUSH1 0x1 PUSH1 0x1 PUSH1 0xA0 SHL SUB DUP4 DUP2 AND PUSH1 0x1 PUSH1 0x1 PUSH1 0xA0 SHL SUB NOT DUP4 AND DUP2 OR DUP5 SSTORE PUSH1 0x40 MLOAD SWAP2 SWAP1 SWAP3 AND SWAP3 DUP4 SWAP2 PUSH32 0x8BE0079C531659141344CD1FD0A4F28419497F9722A3DAAFE3B4186F6B6457E0 SWAP2 SWAP1 LOG3 POP POP JUMP JUMPDEST DUP1 MLOAD PUSH1 0x1 PUSH1 0x1 PUSH1 0xA0 SHL SUB DUP2 AND DUP2 EQ PUSH3 0x1CD JUMPI PUSH1 0x0 DUP1 REVERT JUMPDEST SWAP2 SWAP1 POP JUMP JUMPDEST DUP1 MLOAD PUSH2 0xFFFF DUP2 AND DUP2 EQ PUSH3 0x1CD JUMPI PUSH1 0x0 DUP1 REVERT JUMPDEST PUSH1 0x0 DUP1 PUSH1 0x0 DUP1 PUSH1 0x0 DUP1 PUSH1 0x0 PUSH1 0xE0 DUP9 DUP11 SUB SLT ISZERO PUSH3 0x201 JUMPI PUSH1 0x0 DUP1 REVERT JUMPDEST PUSH3 0x20C DUP9 PUSH3 0x1B5 JUMP JUMPDEST SWAP7 POP PUSH3 0x21C PUSH1 0x20 DUP10 ADD PUSH3 0x1B5 JUMP JUMPDEST SWAP6 POP PUSH3 0x22C PUSH1 0x40 DUP10 ADD PUSH3 0x1B5 JUMP JUMPDEST SWAP5 POP PUSH3 0x23C PUSH1 0x60 DUP10 ADD PUSH3 0x1B5 JUMP JUMPDEST SWAP4 POP PUSH1 0x80 DUP9 ADD MLOAD SWAP3 POP PUSH3 0x253 PUSH1 0xA0 DUP10 ADD PUSH3 0x1D2 JUMP JUMPDEST SWAP2 POP PUSH3 0x263 PUSH1 0xC0 DUP10 ADD PUSH3 0x1D2 JUMP JUMPDEST SWAP1 POP SWAP3 SWAP6 SWAP9 SWAP2 SWAP5 SWAP8 POP SWAP3 SWAP6 POP JUMP JUMPDEST PUSH2 0xFFFF DUP2 DUP2 AND DUP4 DUP3 AND ADD SWAP1 DUP1 DUP3 GT ISZERO PUSH3 0x29B JUMPI PUSH4 0x4E487B71 PUSH1 0xE0 SHL PUSH1 0x0 MSTORE PUSH1 0x11 PUSH1 0x4 MSTORE PUSH1 0x24 PUSH1 0x0 REVERT JUMPDEST POP SWAP3 SWAP2 POP POP JUMP JUMPDEST PUSH1 0x80 MLOAD PUSH2 0xCBB PUSH3 0x2D3 PUSH1 0x0 CODECOPY PUSH1 0x0 DUP2 DUP2 PUSH2 0x23F ADD MSTORE DUP2 DUP2 PUSH2 0x593 ADD MSTORE DUP2 DUP2 PUSH2 0x6A3 ADD MSTORE PUSH2 0x73E ADD MSTORE PUSH2 0xCBB PUSH1 0x0 RETURN INVALID PUSH1 0x80 PUSH1 0x40 MSTORE CALLVALUE DUP1 ISZERO PUSH2 0x10 JUMPI PUSH1 0x0 DUP1 REVERT JUMPDEST POP PUSH1 0x4 CALLDATASIZE LT PUSH2 0x10B JUMPI PUSH1 0x0 CALLDATALOAD PUSH1 0xE0 SHR DUP1 PUSH4 0x715018A6 GT PUSH2 0xA2 JUMPI DUP1 PUSH4 0xB4DB727F GT PUSH2 0x71 JUMPI DUP1 PUSH4 0xB4DB727F EQ PUSH2 0x219 JUMPI DUP1 PUSH4 0xD0EF024A EQ PUSH2 0x23A JUMPI DUP1 PUSH4 0xD44C6DA3 EQ PUSH2 0x261 JUMPI DUP1 PUSH4 0xF0F44260 EQ PUSH2 0x274 JUMPI DUP1 PUSH4 0xF2FDE38B EQ PUSH2 0x287 JUMPI PUSH1 0x0 DUP1 REVERT JUMPDEST DUP1 PUSH4 0x715018A6 EQ PUSH2 0x1DA JUMPI DUP1 PUSH4 0x78F08A8A EQ PUSH2 0x1E2 JUMPI DUP1 PUSH4 0x81F60FD0 EQ PUSH2 0x1F5 JUMPI DUP1 PUSH4 0x8DA5CB5B EQ PUSH2 0x208 JUMPI PUSH1 0x0 DUP1 REVERT JUMPDEST DUP1 PUSH4 0x676A3A97 GT PUSH2 0xDE JUMPI DUP1 PUSH4 0x676A3A97 EQ PUSH2 0x193 JUMPI DUP1 PUSH4 0x691E62E9 EQ PUSH2 0x1A6 JUMPI DUP1 PUSH4 0x6B609012 EQ PUSH2 0x1B4 JUMPI DUP1 PUSH4 0x6B93051E EQ PUSH2 0x1C7 JUMPI PUSH1 0x0 DUP1 REVERT JUMPDEST DUP1 PUSH4 0x3726DC92 EQ PUSH2 0x110 JUMPI DUP1 PUSH4 0x4DC10EA1 EQ PUSH2 0x12C JUMPI DUP1 PUSH4 0x61D027B3 EQ PUSH2 0x153 JUMPI DUP1 PUSH4 0x67442DF7 EQ PUSH2 0x17E JUMPI JUMPDEST PUSH1 0x0 DUP1 REVERT JUMPDEST PUSH2 0x119 PUSH1 0x5 SLOAD DUP2 JUMP JUMPDEST PUSH1 0x40 MLOAD SWAP1 DUP2 MSTORE PUSH1 0x20 ADD JUMPDEST PUSH1 0x40 MLOAD DUP1 SWAP2 SUB SWAP1 RETURN JUMPDEST PUSH1 0x6 SLOAD PUSH2 0x140 SWAP1 PUSH3 0x10000 SWAP1 DIV PUSH2 0xFFFF AND DUP2 JUMP JUMPDEST PUSH1 0x40 MLOAD PUSH2 0xFFFF SWAP1 SWAP2 AND DUP2 MSTORE PUSH1 0x20 ADD PUSH2 0x123 JUMP JUMPDEST PUSH1 0x4 SLOAD PUSH2 0x166 SWAP1 PUSH1 0x1 PUSH1 0x1 PUSH1 0xA0 SHL SUB AND DUP2 JUMP JUMPDEST PUSH1 0x40 MLOAD PUSH1 0x1 PUSH1 0x1 PUSH1 0xA0 SHL SUB SWAP1 SWAP2 AND DUP2 MSTORE PUSH1 0x20 ADD PUSH2 0x123 JUMP JUMPDEST PUSH2 0x191 PUSH2 0x18C CALLDATASIZE PUSH1 0x4 PUSH2 0x979 JUMP JUMPDEST PUSH2 0x29A JUMP JUMPDEST STOP JUMPDEST PUSH1 0x3 SLOAD PUSH2 0x166 SWAP1 PUSH1 0x1 PUSH1 0x1 PUSH1 0xA0 SHL SUB AND DUP2 JUMP JUMPDEST PUSH1 0x6 SLOAD PUSH2 0x140 SWAP1 PUSH2 0xFFFF AND DUP2 JUMP JUMPDEST PUSH1 0x2 SLOAD PUSH2 0x166 SWAP1 PUSH1 0x1 PUSH1 0x1 PUSH1 0xA0 SHL SUB AND DUP2 JUMP JUMPDEST PUSH2 0x191 PUSH2 0x1D5 CALLDATASIZE PUSH1 0x4 PUSH2 0x9A7 JUMP JUMPDEST PUSH2 0x2DD JUMP JUMPDEST PUSH2 0x191 PUSH2 0x356 JUMP JUMPDEST PUSH2 0x191 PUSH2 0x1F0 CALLDATASIZE PUSH1 0x4 PUSH2 0x9E2 JUMP JUMPDEST PUSH2 0x36A JUMP JUMPDEST PUSH2 0x191 PUSH2 0x203 CALLDATASIZE PUSH1 0x4 PUSH2 0x9A7 JUMP JUMPDEST PUSH2 0x403 JUMP JUMPDEST PUSH1 0x0 SLOAD PUSH1 0x1 PUSH1 0x1 PUSH1 0xA0 SHL SUB AND PUSH2 0x166 JUMP JUMPDEST PUSH2 0x22C PUSH2 0x227 CALLDATASIZE PUSH1 0x4 PUSH2 0xA3A JUMP JUMPDEST PUSH2 0x455 JUMP JUMPDEST PUSH1 0x40 MLOAD PUSH2 0x123 SWAP3 SWAP2 SWAP1 PUSH2 0xAB8 JUMP JUMPDEST PUSH2 0x166 PUSH32 0x0 DUP2 JUMP JUMPDEST PUSH2 0x191 PUSH2 0x26F CALLDATASIZE PUSH1 0x4 PUSH2 0xB16 JUMP JUMPDEST PUSH2 0x4B8 JUMP JUMPDEST PUSH2 0x191 PUSH2 0x282 CALLDATASIZE PUSH1 0x4 PUSH2 0x9A7 JUMP JUMPDEST PUSH2 0x816 JUMP JUMPDEST PUSH2 0x191 PUSH2 0x295 CALLDATASIZE PUSH1 0x4 PUSH2 0x9A7 JUMP JUMPDEST PUSH2 0x88F JUMP JUMPDEST PUSH2 0x2A2 PUSH2 0x8D2 JUMP JUMPDEST PUSH1 0x5 DUP2 SWAP1 SSTORE PUSH1 0x40 MLOAD DUP2 DUP2 MSTORE PUSH32 0x5D064EE1EEA0D8F31204A89C067937DF713BAB3354E4B16AD92E39B6FBD62034 SWAP1 PUSH1 0x20 ADD PUSH1 0x40 MLOAD DUP1 SWAP2 SUB SWAP1 LOG1 POP JUMP JUMPDEST PUSH2 0x2E5 PUSH2 0x8D2 JUMP JUMPDEST PUSH1 0x1 PUSH1 0x1 PUSH1 0xA0 SHL SUB DUP2 AND PUSH2 0x30C JUMPI PUSH1 0x40 MLOAD PUSH4 0xE6C4247B PUSH1 0xE0 SHL DUP2 MSTORE PUSH1 0x4 ADD PUSH1 0x40 MLOAD DUP1 SWAP2 SUB SWAP1 REVERT JUMPDEST PUSH1 0x2 DUP1 SLOAD PUSH1 0x1 PUSH1 0x1 PUSH1 0xA0 SHL SUB NOT AND PUSH1 0x1 PUSH1 0x1 PUSH1 0xA0 SHL SUB DUP4 AND SWAP1 DUP2 OR SWAP1 SWAP2 SSTORE PUSH1 0x40 MLOAD PUSH32 0x4CEC6598D60150D0980E16636358815D13FC1441812EAA6FFA990D0AB951238D SWAP1 PUSH1 0x0 SWAP1 LOG2 POP JUMP JUMPDEST PUSH2 0x35E PUSH2 0x8D2 JUMP JUMPDEST PUSH2 0x368 PUSH1 0x0 PUSH2 0x8FF JUMP JUMPDEST JUMP JUMPDEST PUSH2 0x372 PUSH2 0x8D2 JUMP JUMPDEST PUSH2 0x2710 PUSH2 0x37F DUP3 DUP5 PUSH2 0xBEF JUMP JUMPDEST PUSH2 0xFFFF AND GT ISZERO PUSH2 0x3A2 JUMPI PUSH1 0x40 MLOAD PUSH4 0xBCD55B0F PUSH1 0xE0 SHL DUP2 MSTORE PUSH1 0x4 ADD PUSH1 0x40 MLOAD DUP1 SWAP2 SUB SWAP1 REVERT JUMPDEST PUSH1 0x6 DUP1 SLOAD PUSH2 0xFFFF DUP5 DUP2 AND PUSH4 0xFFFFFFFF NOT SWAP1 SWAP3 AND DUP3 OR PUSH3 0x10000 SWAP2 DUP6 AND SWAP2 DUP3 MUL OR SWAP1 SWAP3 SSTORE PUSH1 0x40 DUP1 MLOAD SWAP2 DUP3 MSTORE PUSH1 0x20 DUP3 ADD SWAP3 SWAP1 SWAP3 MSTORE PUSH32 0xB0FECB23D7CB62CBE2983F308A247587D4F1AD1A89A7F9C9A1C98A01B4571396 SWAP2 ADD PUSH1 0x40 MLOAD DUP1 SWAP2 SUB SWAP1 LOG1 POP POP JUMP JUMPDEST PUSH2 0x40B PUSH2 0x8D2 JUMP JUMPDEST PUSH1 0x3 DUP1 SLOAD PUSH1 0x1 PUSH1 0x1 PUSH1 0xA0 SHL SUB NOT AND PUSH1 0x1 PUSH1 0x1 PUSH1 0xA0 SHL SUB DUP4 AND SWAP1 DUP2 OR SWAP1 SWAP2 SSTORE PUSH1 0x40 MLOAD PUSH32 0x68DC2AC936343E767F9487005290857AA94C19F7A0E8215100C8CDF42D6793B9 SWAP1 PUSH1 0x0 SWAP1 LOG2 POP JUMP JUMPDEST PUSH1 0x3 SLOAD PUSH1 0x0 SWAP1 PUSH1 0x60 SWAP1 PUSH1 0x1 PUSH1 0x1 PUSH1 0xA0 SHL SUB AND CALLER EQ PUSH2 0x486 JUMPI PUSH1 0x40 MLOAD PUSH4 0x1C535025 PUSH1 0xE3 SHL DUP2 MSTORE PUSH1 0x4 ADD PUSH1 0x40 MLOAD DUP1 SWAP2 SUB SWAP1 REVERT JUMPDEST PUSH1 0x40 DUP1 MLOAD PUSH1 0x1 PUSH1 0x1 PUSH1 0xA0 SHL SUB DUP10 AND PUSH1 0x20 DUP3 ADD MSTORE ADDRESS SWAP4 POP ADD PUSH1 0x40 MLOAD PUSH1 0x20 DUP2 DUP4 SUB SUB DUP2 MSTORE SWAP1 PUSH1 0x40 MSTORE SWAP1 POP SWAP6 POP SWAP6 SWAP4 POP POP POP POP JUMP JUMPDEST PUSH1 0x3 SLOAD PUSH1 0x1 PUSH1 0x1 PUSH1 0xA0 SHL SUB AND CALLER EQ PUSH2 0x4E3 JUMPI PUSH1 0x40 MLOAD PUSH4 0x1C535025 PUSH1 0xE3 SHL DUP2 MSTORE PUSH1 0x4 ADD PUSH1 0x40 MLOAD DUP1 SWAP2 SUB SWAP1 REVERT JUMPDEST PUSH2 0x4EB PUSH2 0x94F JUMP JUMPDEST PUSH1 0x0 PUSH2 0x4F9 DUP3 DUP5 ADD DUP5 PUSH2 0x9A7 JUMP JUMPDEST PUSH1 0x6 SLOAD SWAP1 SWAP2 POP PUSH1 0x0 SWAP1 PUSH2 0x2710 SWAP1 PUSH2 0x514 SWAP1 PUSH2 0xFFFF AND DUP9 PUSH2 0xC11 JUMP JUMPDEST PUSH2 0x51E SWAP2 SWAP1 PUSH2 0xC2E JUMP JUMPDEST PUSH1 0x6 SLOAD SWAP1 SWAP2 POP PUSH1 0x0 SWAP1 PUSH2 0x2710 SWAP1 PUSH2 0x53F SWAP1 PUSH3 0x10000 SWAP1 DIV PUSH2 0xFFFF AND DUP10 PUSH2 0xC11 JUMP JUMPDEST PUSH2 0x549 SWAP2 SWAP1 PUSH2 0xC2E JUMP JUMPDEST SWAP1 POP PUSH1 0x0 DUP2 PUSH2 0x558 DUP5 DUP11 PUSH2 0xC50 JUMP JUMPDEST PUSH2 0x562 SWAP2 SWAP1 PUSH2 0xC50 JUMP JUMPDEST SWAP1 POP DUP3 ISZERO PUSH2 0x671 JUMPI PUSH1 0x2 SLOAD PUSH1 0x40 MLOAD PUSH4 0x95EA7B3 PUSH1 0xE0 SHL DUP2 MSTORE PUSH1 0x1 PUSH1 0x1 PUSH1 0xA0 SHL SUB SWAP2 DUP3 AND PUSH1 0x4 DUP3 ADD MSTORE PUSH1 0x24 DUP2 ADD DUP6 SWAP1 MSTORE PUSH32 0x0 SWAP1 SWAP2 AND SWAP1 PUSH4 0x95EA7B3 SWAP1 PUSH1 0x44 ADD PUSH1 0x20 PUSH1 0x40 MLOAD DUP1 DUP4 SUB DUP2 PUSH1 0x0 DUP8 GAS CALL ISZERO DUP1 ISZERO PUSH2 0x5DE JUMPI RETURNDATASIZE PUSH1 0x0 DUP1 RETURNDATACOPY RETURNDATASIZE PUSH1 0x0 REVERT JUMPDEST POP POP POP POP PUSH1 0x40 MLOAD RETURNDATASIZE PUSH1 0x1F NOT PUSH1 0x1F DUP3 ADD AND DUP3 ADD DUP1 PUSH1 0x40 MSTORE POP DUP2 ADD SWAP1 PUSH2 0x602 SWAP2 SWAP1 PUSH2 0xC63 JUMP JUMPDEST POP PUSH1 0x2 SLOAD PUSH1 0x5 SLOAD PUSH1 0x40 MLOAD PUSH3 0x97B2E5 PUSH1 0xE1 SHL DUP2 MSTORE PUSH1 0x1 PUSH1 0x1 PUSH1 0xA0 SHL SUB SWAP1 SWAP3 AND SWAP2 PUSH4 0x12F65CA SWAP2 PUSH2 0x63E SWAP2 DUP8 SWAP1 PUSH1 0x4 ADD SWAP2 DUP3 MSTORE PUSH1 0x20 DUP3 ADD MSTORE PUSH1 0x40 ADD SWAP1 JUMP JUMPDEST PUSH1 0x0 PUSH1 0x40 MLOAD DUP1 DUP4 SUB DUP2 PUSH1 0x0 DUP8 DUP1 EXTCODESIZE ISZERO DUP1 ISZERO PUSH2 0x658 JUMPI PUSH1 0x0 DUP1 REVERT JUMPDEST POP GAS CALL ISZERO DUP1 ISZERO PUSH2 0x66C JUMPI RETURNDATASIZE PUSH1 0x0 DUP1 RETURNDATACOPY RETURNDATASIZE PUSH1 0x0 REVERT JUMPDEST POP POP POP POP JUMPDEST DUP2 ISZERO PUSH2 0x712 JUMPI PUSH1 0x4 DUP1 SLOAD PUSH1 0x40 MLOAD PUSH4 0xA9059CBB PUSH1 0xE0 SHL DUP2 MSTORE PUSH1 0x1 PUSH1 0x1 PUSH1 0xA0 SHL SUB SWAP2 DUP3 AND SWAP3 DUP2 ADD SWAP3 SWAP1 SWAP3 MSTORE PUSH1 0x24 DUP3 ADD DUP5 SWAP1 MSTORE PUSH32 0x0 AND SWAP1 PUSH4 0xA9059CBB SWAP1 PUSH1 0x44 ADD PUSH1 0x20 PUSH1 0x40 MLOAD DUP1 DUP4 SUB DUP2 PUSH1 0x0 DUP8 GAS CALL ISZERO DUP1 ISZERO PUSH2 0x6EC JUMPI RETURNDATASIZE PUSH1 0x0 DUP1 RETURNDATACOPY RETURNDATASIZE PUSH1 0x0 REVERT JUMPDEST POP POP POP POP PUSH1 0x40 MLOAD RETURNDATASIZE PUSH1 0x1F NOT PUSH1 0x1F DUP3 ADD AND DUP3 ADD DUP1 PUSH1 0x40 MSTORE POP DUP2 ADD SWAP1 PUSH2 0x710 SWAP2 SWAP1 PUSH2 0xC63 JUMP JUMPDEST POP JUMPDEST DUP1 ISZERO PUSH2 0x7AD JUMPI PUSH1 0x40 MLOAD PUSH4 0xA9059CBB PUSH1 0xE0 SHL DUP2 MSTORE PUSH1 0x1 PUSH1 0x1 PUSH1 0xA0 SHL SUB DUP6 DUP2 AND PUSH1 0x4 DUP4 ADD MSTORE PUSH1 0x24 DUP3 ADD DUP4 SWAP1 MSTORE PUSH32 0x0 AND SWAP1 PUSH4 0xA9059CBB SWAP1 PUSH1 0x44 ADD PUSH1 0x20 PUSH1 0x40 MLOAD DUP1 DUP4 SUB DUP2 PUSH1 0x0 DUP8 GAS CALL ISZERO DUP1 ISZERO PUSH2 0x787 JUMPI RETURNDATASIZE PUSH1 0x0 DUP1 RETURNDATACOPY RETURNDATASIZE PUSH1 0x0 REVERT JUMPDEST POP POP POP POP PUSH1 0x40 MLOAD RETURNDATASIZE PUSH1 0x1F NOT PUSH1 0x1F DUP3 ADD AND DUP3 ADD DUP1 PUSH1 0x40 MSTORE POP DUP2 ADD SWAP1 PUSH2 0x7AB SWAP2 SWAP1 PUSH2 0xC63 JUMP JUMPDEST POP JUMPDEST PUSH1 0x40 DUP1 MLOAD DUP10 DUP2 MSTORE PUSH1 0x20 DUP2 ADD DUP4 SWAP1 MSTORE SWAP1 DUP2 ADD DUP4 SWAP1 MSTORE PUSH1 0x60 DUP2 ADD DUP5 SWAP1 MSTORE PUSH1 0x1 PUSH1 0x1 PUSH1 0xA0 SHL SUB DUP6 AND SWAP1 PUSH32 0x86DE031C17C104A31C8FC96CB144C18B2230E4DBA63CB965EF0C732FFC8668C4 SWAP1 PUSH1 0x80 ADD PUSH1 0x40 MLOAD DUP1 SWAP2 SUB SWAP1 LOG2 POP POP POP POP PUSH2 0x80D PUSH1 0x1 DUP1 SSTORE JUMP JUMPDEST POP POP POP POP POP POP POP JUMP JUMPDEST PUSH2 0x81E PUSH2 0x8D2 JUMP JUMPDEST PUSH1 0x1 PUSH1 0x1 PUSH1 0xA0 SHL SUB DUP2 AND PUSH2 0x845 JUMPI PUSH1 0x40 MLOAD PUSH4 0xE6C4247B PUSH1 0xE0 SHL DUP2 MSTORE PUSH1 0x4 ADD PUSH1 0x40 MLOAD DUP1 SWAP2 SUB SWAP1 REVERT JUMPDEST PUSH1 0x4 DUP1 SLOAD PUSH1 0x1 PUSH1 0x1 PUSH1 0xA0 SHL SUB NOT AND PUSH1 0x1 PUSH1 0x1 PUSH1 0xA0 SHL SUB DUP4 AND SWAP1 DUP2 OR SWAP1 SWAP2 SSTORE PUSH1 0x40 MLOAD PUSH32 0x7DAE230F18360D76A040C81F050AA14EB9D6DC7901B20FC5D855E2A20FE814D1 SWAP1 PUSH1 0x0 SWAP1 LOG2 POP JUMP JUMPDEST PUSH2 0x897 PUSH2 0x8D2 JUMP JUMPDEST PUSH1 0x1 PUSH1 0x1 PUSH1 0xA0 SHL SUB DUP2 AND PUSH2 0x8C6 JUMPI PUSH1 0x40 MLOAD PUSH4 0x1E4FBDF7 PUSH1 0xE0 SHL DUP2 MSTORE PUSH1 0x0 PUSH1 0x4 DUP3 ADD MSTORE PUSH1 0x24 ADD JUMPDEST PUSH1 0x40 MLOAD DUP1 SWAP2 SUB SWAP1 REVERT JUMPDEST PUSH2 0x8CF DUP2 PUSH2 0x8FF JUMP JUMPDEST POP JUMP JUMPDEST PUSH1 0x0 SLOAD PUSH1 0x1 PUSH1 0x1 PUSH1 0xA0 SHL SUB AND CALLER EQ PUSH2 0x368 JUMPI PUSH1 0x40 MLOAD PUSH4 0x118CDAA7 PUSH1 0xE0 SHL DUP2 MSTORE CALLER PUSH1 0x4 DUP3 ADD MSTORE PUSH1 0x24 ADD PUSH2 0x8BD JUMP JUMPDEST PUSH1 0x0 DUP1 SLOAD PUSH1 0x1 PUSH1 0x1 PUSH1 0xA0 SHL SUB DUP4 DUP2 AND PUSH1 0x1 PUSH1 0x1 PUSH1 0xA0 SHL SUB NOT DUP4 AND DUP2 OR DUP5 SSTORE PUSH1 0x40 MLOAD SWAP2 SWAP1 SWAP3 AND SWAP3 DUP4 SWAP2 PUSH32 0x8BE0079C531659141344CD1FD0A4F28419497F9722A3DAAFE3B4186F6B6457E0 SWAP2 SWAP1 LOG3 POP POP JUMP JUMPDEST PUSH1 0x2 PUSH1 0x1 SLOAD SUB PUSH2 0x972 JUMPI PUSH1 0x40 MLOAD PUSH4 0x3EE5AEB5 PUSH1 0xE0 SHL DUP2 MSTORE PUSH1 0x4 ADD PUSH1 0x40 MLOAD DUP1 SWAP2 SUB SWAP1 REVERT JUMPDEST PUSH1 0x2 PUSH1 0x1 SSTORE JUMP JUMPDEST PUSH1 0x0 PUSH1 0x20 DUP3 DUP5 SUB SLT ISZERO PUSH2 0x98B JUMPI PUSH1 0x0 DUP1 REVERT JUMPDEST POP CALLDATALOAD SWAP2 SWAP1 POP JUMP JUMPDEST PUSH1 0x1 PUSH1 0x1 PUSH1 0xA0 SHL SUB DUP2 AND DUP2 EQ PUSH2 0x8CF JUMPI PUSH1 0x0 DUP1 REVERT JUMPDEST PUSH1 0x0 PUSH1 0x20 DUP3 DUP5 SUB SLT ISZERO PUSH2 0x9B9 JUMPI PUSH1 0x0 DUP1 REVERT JUMPDEST DUP2 CALLDATALOAD PUSH2 0x9C4 DUP2 PUSH2 0x992 JUMP JUMPDEST SWAP4 SWAP3 POP POP POP JUMP JUMPDEST DUP1 CALLDATALOAD PUSH2 0xFFFF DUP2 AND DUP2 EQ PUSH2 0x9DD JUMPI PUSH1 0x0 DUP1 REVERT JUMPDEST SWAP2 SWAP1 POP JUMP JUMPDEST PUSH1 0x0 DUP1 PUSH1 0x40 DUP4 DUP6 SUB SLT ISZERO PUSH2 0x9F5 JUMPI PUSH1 0x0 DUP1 REVERT JUMPDEST PUSH2 0x9FE DUP4 PUSH2 0x9CB JUMP JUMPDEST SWAP2 POP PUSH2 0xA0C PUSH1 0x20 DUP5 ADD PUSH2 0x9CB JUMP JUMPDEST SWAP1 POP SWAP3 POP SWAP3 SWAP1 POP JUMP JUMPDEST DUP1 CALLDATALOAD PUSH1 0xFF DUP2 AND DUP2 EQ PUSH2 0x9DD JUMPI PUSH1 0x0 DUP1 REVERT JUMPDEST DUP1 CALLDATALOAD PUSH4 0xFFFFFFFF DUP2 AND DUP2 EQ PUSH2 0x9DD JUMPI PUSH1 0x0 DUP1 REVERT JUMPDEST PUSH1 0x0 DUP1 PUSH1 0x0 DUP1 PUSH1 0x0 PUSH1 0xA0 DUP7 DUP9 SUB SLT ISZERO PUSH2 0xA52 JUMPI PUSH1 0x0 DUP1 REVERT JUMPDEST DUP6 CALLDATALOAD PUSH2 0xA5D DUP2 PUSH2 0x992 JUMP JUMPDEST SWAP5 POP PUSH2 0xA6B PUSH1 0x20 DUP8 ADD PUSH2 0xA15 JUMP JUMPDEST SWAP4 POP PUSH2 0xA79 PUSH1 0x40 DUP8 ADD PUSH2 0xA26 JUMP JUMPDEST SWAP3 POP PUSH1 0x60 DUP7 ADD CALLDATALOAD PUSH12 0xFFFFFFFFFFFFFFFFFFFFFFFF DUP2 AND DUP2 EQ PUSH2 0xA9A JUMPI PUSH1 0x0 DUP1 REVERT JUMPDEST SWAP2 POP PUSH1 0x80 DUP7 ADD CALLDATALOAD PUSH2 0xAAA DUP2 PUSH2 0x992 JUMP JUMPDEST DUP1 SWAP2 POP POP SWAP3 SWAP6 POP SWAP3 SWAP6 SWAP1 SWAP4 POP JUMP JUMPDEST PUSH1 0x1 DUP1 PUSH1 0xA0 SHL SUB DUP4 AND DUP2 MSTORE PUSH1 0x0 PUSH1 0x20 PUSH1 0x40 DUP2 DUP5 ADD MSTORE DUP4 MLOAD DUP1 PUSH1 0x40 DUP6 ADD MSTORE PUSH1 0x0 JUMPDEST DUP2 DUP2 LT ISZERO PUSH2 0xAF4 JUMPI DUP6 DUP2 ADD DUP4 ADD MLOAD DUP6 DUP3 ADD PUSH1 0x60 ADD MSTORE DUP3 ADD PUSH2 0xAD8 JUMP JUMPDEST POP PUSH1 0x0 PUSH1 0x60 DUP3 DUP7 ADD ADD MSTORE PUSH1 0x60 PUSH1 0x1F NOT PUSH1 0x1F DUP4 ADD AND DUP6 ADD ADD SWAP3 POP POP POP SWAP4 SWAP3 POP POP POP JUMP JUMPDEST PUSH1 0x0 DUP1 PUSH1 0x0 DUP1 PUSH1 0x0 DUP1 PUSH1 0x0 PUSH1 0xC0 DUP9 DUP11 SUB SLT ISZERO PUSH2 0xB31 JUMPI PUSH1 0x0 DUP1 REVERT JUMPDEST DUP8 CALLDATALOAD PUSH2 0xB3C DUP2 PUSH2 0x992 JUMP JUMPDEST SWAP7 POP PUSH2 0xB4A PUSH1 0x20 DUP10 ADD PUSH2 0xA15 JUMP JUMPDEST SWAP6 POP PUSH2 0xB58 PUSH1 0x40 DUP10 ADD PUSH2 0xA26 JUMP JUMPDEST SWAP5 POP PUSH1 0x60 DUP9 ADD CALLDATALOAD SWAP4 POP PUSH1 0x80 DUP9 ADD CALLDATALOAD PUSH2 0xB6F DUP2 PUSH2 0x992 JUMP JUMPDEST SWAP3 POP PUSH1 0xA0 DUP9 ADD CALLDATALOAD PUSH8 0xFFFFFFFFFFFFFFFF DUP1 DUP3 GT ISZERO PUSH2 0xB8C JUMPI PUSH1 0x0 DUP1 REVERT JUMPDEST DUP2 DUP11 ADD SWAP2 POP DUP11 PUSH1 0x1F DUP4 ADD SLT PUSH2 0xBA0 JUMPI PUSH1 0x0 DUP1 REVERT JUMPDEST DUP2 CALLDATALOAD DUP2 DUP2 GT ISZERO PUSH2 0xBAF JUMPI PUSH1 0x0 DUP1 REVERT JUMPDEST DUP12 PUSH1 0x20 DUP3 DUP6 ADD ADD GT ISZERO PUSH2 0xBC1 JUMPI PUSH1 0x0 DUP1 REVERT JUMPDEST PUSH1 0x20 DUP4 ADD SWAP5 POP DUP1 SWAP4 POP POP POP POP SWAP3 SWAP6 SWAP9 SWAP2 SWAP5 SWAP8 POP SWAP3 SWAP6 POP JUMP JUMPDEST PUSH4 0x4E487B71 PUSH1 0xE0 SHL PUSH1 0x0 MSTORE PUSH1 0x11 PUSH1 0x4 MSTORE PUSH1 0x24 PUSH1 0x0 REVERT JUMPDEST PUSH2 0xFFFF DUP2 DUP2 AND DUP4 DUP3 AND ADD SWAP1 DUP1 DUP3 GT ISZERO PUSH2 0xC0A JUMPI PUSH2 0xC0A PUSH2 0xBD9 JUMP JUMPDEST POP SWAP3 SWAP2 POP POP JUMP JUMPDEST DUP1 DUP3 MUL DUP2 ISZERO DUP3 DUP3 DIV DUP5 EQ OR PUSH2 0xC28 JUMPI PUSH2 0xC28 PUSH2 0xBD9 JUMP JUMPDEST SWAP3 SWAP2 POP POP JUMP JUMPDEST PUSH1 0x0 DUP3 PUSH2 0xC4B JUMPI PUSH4 0x4E487B71 PUSH1 0xE0 SHL PUSH1 0x0 MSTORE PUSH1 0x12 PUSH1 0x4 MSTORE PUSH1 0x24 PUSH1 0x0 REVERT JUMPDEST POP DIV SWAP1 JUMP JUMPDEST DUP2 DUP2 SUB DUP2 DUP2 GT ISZERO PUSH2 0xC28 JUMPI PUSH2 0xC28 PUSH2 0xBD9 JUMP JUMPDEST PUSH1 0x0 PUSH1 0x20 DUP3 DUP5 SUB SLT ISZERO PUSH2 0xC75 JUMPI PUSH1 0x0 DUP1 REVERT JUMPDEST DUP2 MLOAD DUP1 ISZERO ISZERO DUP2 EQ PUSH2 0x9C4 JUMPI PUSH1 0x0 DUP1 REVERT INVALID LOG2 PUSH5 0x6970667358 0x22 SLT KECCAK256 PUSH25 0x20CF05D3762CDF6CEC38C9FF0A8FAD7FD66151DDB1B2BF074D ADDMOD 0x27 0xCA 0xD7 SLOAD CODESIZE PUSH5 0x736F6C6343 STOP ADDMOD EQ STOP CALLER "
        },
        "methodIdentifiers": {
          "afterClaimPrize(address,uint8,uint32,uint256,address,bytes)": "d44c6da3",
          "beforeClaimPrize(address,uint8,uint32,uint96,address)": "b4db727f",
          "owner()": "8da5cb5b",
          "prizeToken()": "d0ef024a",
          "prizeVault()": "676a3a97",
          "renounceOwnership()": "715018a6",
          "setPrizeVault(address)": "81f60fd0",
          "setSidepotId(uint256)": "67442df7",
          "setSidepotManager(address)": "6b93051e",
          "setSplitConfig(uint16,uint16)": "78f08a8a",
          "setTreasury(address)": "f0f44260",
          "sidepotBps()": "691e62e9",
          "sidepotId()": "3726dc92",
          "sidepotManager()": "6b609012",
          "transferOwnership(address)": "f2fde38b",
          "treasury()": "61d027b3",
          "treasuryBps()": "4dc10ea1"
        }
      }
    }
  }
}