{
  "_format": "hh-sol-artifact-1",
  "contractName": "MerkabaCore",
  "sourceName": "src/MerkabaCore.sol",
  "abi": [
    {
      "inputs": [
        {
          "internalType": "address",
          "name": "_paymentToken",
          "type": "address"
        }
      ],
      "stateMutability": "nonpayable",
      "type": "constructor"
    },
    {
      "inputs": [
        {
          "internalType": "address",
          "name": "owner",
          "type": "address"
        }
      ],
      "name": "OwnableInvalidOwner",
      "type": "error"
    },
    {
      "inputs": [
        {
          "internalType": "address",
          "name": "account",
          "type": "address"
        }
      ],
      "name": "OwnableUnauthorizedAccount",
      "type": "error"
    },
    {
      "inputs": [],
      "name": "ReentrancyGuardReentrantCall",
      "type": "error"
    },
    {
      "anonymous": false,
      "inputs": [
        {
          "indexed": false,
          "internalType": "string",
          "name": "source",
          "type": "string"
        },
        {
          "indexed": false,
          "internalType": "uint256",
          "name": "amount",
          "type": "uint256"
        },
        {
          "indexed": false,
          "internalType": "uint256",
          "name": "splitSun",
          "type": "uint256"
        },
        {
          "indexed": false,
          "internalType": "uint256",
          "name": "splitEarth",
          "type": "uint256"
        }
      ],
      "name": "Deposit",
      "type": "event"
    },
    {
      "anonymous": false,
      "inputs": [
        {
          "indexed": false,
          "internalType": "address",
          "name": "target",
          "type": "address"
        },
        {
          "indexed": false,
          "internalType": "uint256",
          "name": "amount",
          "type": "uint256"
        }
      ],
      "name": "EmergencyDrain",
      "type": "event"
    },
    {
      "anonymous": false,
      "inputs": [
        {
          "indexed": true,
          "internalType": "address",
          "name": "previousOwner",
          "type": "address"
        },
        {
          "indexed": true,
          "internalType": "address",
          "name": "newOwner",
          "type": "address"
        }
      ],
      "name": "OwnershipTransferred",
      "type": "event"
    },
    {
      "anonymous": false,
      "inputs": [
        {
          "indexed": false,
          "internalType": "string",
          "name": "action",
          "type": "string"
        },
        {
          "indexed": false,
          "internalType": "uint256",
          "name": "amountMoved",
          "type": "uint256"
        },
        {
          "indexed": false,
          "internalType": "uint256",
          "name": "newSun",
          "type": "uint256"
        },
        {
          "indexed": false,
          "internalType": "uint256",
          "name": "newEarth",
          "type": "uint256"
        }
      ],
      "name": "Pulse",
      "type": "event"
    },
    {
      "inputs": [],
      "name": "PRECISION",
      "outputs": [
        {
          "internalType": "uint256",
          "name": "",
          "type": "uint256"
        }
      ],
      "stateMutability": "view",
      "type": "function"
    },
    {
      "inputs": [],
      "name": "earthBalance",
      "outputs": [
        {
          "internalType": "uint256",
          "name": "",
          "type": "uint256"
        }
      ],
      "stateMutability": "view",
      "type": "function"
    },
    {
      "inputs": [
        {
          "internalType": "uint256",
          "name": "_amount",
          "type": "uint256"
        }
      ],
      "name": "injectCapital",
      "outputs": [],
      "stateMutability": "nonpayable",
      "type": "function"
    },
    {
      "inputs": [
        {
          "internalType": "address",
          "name": "_yieldStrategy",
          "type": "address"
        },
        {
          "internalType": "uint256",
          "name": "_amount",
          "type": "uint256"
        }
      ],
      "name": "investEarth",
      "outputs": [],
      "stateMutability": "nonpayable",
      "type": "function"
    },
    {
      "inputs": [],
      "name": "owner",
      "outputs": [
        {
          "internalType": "address",
          "name": "",
          "type": "address"
        }
      ],
      "stateMutability": "view",
      "type": "function"
    },
    {
      "inputs": [],
      "name": "paymentToken",
      "outputs": [
        {
          "internalType": "contract IERC20",
          "name": "",
          "type": "address"
        }
      ],
      "stateMutability": "view",
      "type": "function"
    },
    {
      "inputs": [
        {
          "internalType": "address",
          "name": "_winner",
          "type": "address"
        },
        {
          "internalType": "uint256",
          "name": "_amount",
          "type": "uint256"
        }
      ],
      "name": "payoutWinner",
      "outputs": [],
      "stateMutability": "nonpayable",
      "type": "function"
    },
    {
      "inputs": [],
      "name": "pulse",
      "outputs": [],
      "stateMutability": "nonpayable",
      "type": "function"
    },
    {
      "inputs": [],
      "name": "rebalanceStrength",
      "outputs": [
        {
          "internalType": "uint256",
          "name": "",
          "type": "uint256"
        }
      ],
      "stateMutability": "view",
      "type": "function"
    },
    {
      "inputs": [],
      "name": "renounceOwnership",
      "outputs": [],
      "stateMutability": "nonpayable",
      "type": "function"
    },
    {
      "inputs": [],
      "name": "sunBalance",
      "outputs": [
        {
          "internalType": "uint256",
          "name": "",
          "type": "uint256"
        }
      ],
      "stateMutability": "view",
      "type": "function"
    },
    {
      "inputs": [],
      "name": "targetRatio",
      "outputs": [
        {
          "internalType": "uint256",
          "name": "",
          "type": "uint256"
        }
      ],
      "stateMutability": "view",
      "type": "function"
    },
    {
      "inputs": [
        {
          "internalType": "address",
          "name": "newOwner",
          "type": "address"
        }
      ],
      "name": "transferOwnership",
      "outputs": [],
      "stateMutability": "nonpayable",
      "type": "function"
    }
  ],
  "bytecode": "0x60a060405260646004556005805534801561001957600080fd5b50604051610baf380380610baf833981016040819052610038916100cd565b338061005e57604051631e4fbdf760e01b81526000600482015260240160405180910390fd5b6100678161007d565b50600180556001600160a01b03166080526100fd565b600080546001600160a01b038381166001600160a01b0319831681178455604051919092169283917f8be0079c531659141344cd1fd0a4f28419497f9722a3daafe3b4186f6b6457e09190a35050565b6000602082840312156100df57600080fd5b81516001600160a01b03811681146100f657600080fd5b9392505050565b608051610a8361012c6000396000818160fe0152818161022e01528181610433015261058b0152610a836000f3fe608060405234801561001057600080fd5b50600436106100cf5760003560e01c8063715018a61161008c578063aaf5eb6811610066578063aaf5eb681461018b578063d725b6fd14610193578063deb189b5146101a6578063f2fde38b146101ae57600080fd5b8063715018a6146101695780637ed87a88146101715780638da5cb5b1461017a57600080fd5b80630e4c7a6a146100d45780631ad1da37146100f05780633013ce29146100f95780635a08bd17146101385780635ecc751214610141578063655979eb14610156575b600080fd5b6100dd60055481565b6040519081526020015b60405180910390f35b6100dd60025481565b6101207f000000000000000000000000000000000000000000000000000000000000000081565b6040516001600160a01b0390911681526020016100e7565b6100dd60045481565b61015461014f36600461092f565b6101c1565b005b610154610164366004610964565b6103b3565b6101546104e0565b6100dd60035481565b6000546001600160a01b0316610120565b6100dd606481565b6101546101a1366004610964565b6104f4565b61015461063d565b6101546101bc36600461098e565b610656565b6101c9610691565b6000811161020c5760405162461bcd60e51b815260206004820152600b60248201526a5a65726f20656e6572677960a81b60448201526064015b60405180910390fd5b6040516323b872dd60e01b8152336004820152306024820152604481018290527f00000000000000000000000000000000000000000000000000000000000000006001600160a01b0316906323b872dd906064016020604051808303816000875af115801561027f573d6000803e3d6000fd5b505050506040513d601f19601f820116820180604052508101906102a391906109b0565b6102e15760405162461bcd60e51b815260206004820152600f60248201526e151c985b9cd9995c8819985a5b1959608a1b6044820152606401610203565b600060646102f08360506109e8565b6102fa9190610a05565b905060006103088284610a27565b9050816002600082825461031c9190610a3a565b9250508190555080600360008282546103359190610a3a565b9091555050604080516080808252600a908201526941756374696f6e46656560b01b60a082015260208101859052908101839052606081018290527f2e789a3be8e9befc9d387e55c4bdd316606b7e543c733155d102d64ae22522359060c00160405180910390a16103a56106bb565b50506103b060018055565b50565b6103bb6108b2565b60035481111561040d5760405162461bcd60e51b815260206004820152601760248201527f4e6f7420656e6f75676820456172746820656e657267790000000000000000006044820152606401610203565b60405163a9059cbb60e01b81526001600160a01b038381166004830152602482018390527f0000000000000000000000000000000000000000000000000000000000000000169063a9059cbb906044016020604051808303816000875af115801561047c573d6000803e3d6000fd5b505050506040513d601f19601f820116820180604052508101906104a091906109b0565b6104dc5760405162461bcd60e51b815260206004820152600d60248201526c125b9d995cdd0819985a5b1959609a1b6044820152606401610203565b5050565b6104e86108b2565b6104f260006108df565b565b6104fc6108b2565b610504610691565b60025481111561054e5760405162461bcd60e51b81526020600482015260156024820152744e6f7420656e6f7567682053756e20656e6572677960581b6044820152606401610203565b80600260008282546105609190610a27565b909155505060405163a9059cbb60e01b81526001600160a01b038381166004830152602482018390527f0000000000000000000000000000000000000000000000000000000000000000169063a9059cbb906044016020604051808303816000875af11580156105d4573d6000803e3d6000fd5b505050506040513d601f19601f820116820180604052508101906105f891906109b0565b6106345760405162461bcd60e51b815260206004820152600d60248201526c14185e5bdd5d0819985a5b1959609a1b6044820152606401610203565b6104dc60018055565b610645610691565b61064d6106bb565b6104f260018055565b61065e6108b2565b6001600160a01b03811661068857604051631e4fbdf760e01b815260006004820152602401610203565b6103b0816108df565b6002600154036106b457604051633ee5aeb560e01b815260040160405180910390fd5b6002600155565b60035415806106ca5750600254155b156106d157565b600060035460646002546106e591906109e8565b6106ef9190610a05565b90506004548111156107d657600060035460025461070d9190610a27565b9050600060646005548361072191906109e8565b61072b9190610a05565b9050806002600082825461073f9190610a27565b9250508190555080600360008282546107589190610a3a565b9091555050600254600354604080516080808252601590820152740869e9e98929c8e7440a6eadc405a7c408ac2e4e8d605b1b60a0820152602081018590529081019290925260608201527face21ecf2c2f5de86ea42907e7d3afa6884ad82e0d5247d972d682f1f05fb5d39060c0015b60405180910390a1505050565b6004548110156103b05760006002546003546107f29190610a27565b9050600060646005548361080691906109e8565b6108109190610a05565b905080600360008282546108249190610a27565b92505081905550806002600082825461083d9190610a3a565b9091555050600254600354604080516080808252601590820152742422a0aa24a7239d1022b0b93a3410169f1029bab760591b60a0820152602081018590529081019290925260608201527face21ecf2c2f5de86ea42907e7d3afa6884ad82e0d5247d972d682f1f05fb5d39060c0016107c9565b6000546001600160a01b031633146104f25760405163118cdaa760e01b8152336004820152602401610203565b600080546001600160a01b038381166001600160a01b0319831681178455604051919092169283917f8be0079c531659141344cd1fd0a4f28419497f9722a3daafe3b4186f6b6457e09190a35050565b60006020828403121561094157600080fd5b5035919050565b80356001600160a01b038116811461095f57600080fd5b919050565b6000806040838503121561097757600080fd5b61098083610948565b946020939093013593505050565b6000602082840312156109a057600080fd5b6109a982610948565b9392505050565b6000602082840312156109c257600080fd5b815180151581146109a957600080fd5b634e487b7160e01b600052601160045260246000fd5b80820281158282048414176109ff576109ff6109d2565b92915050565b600082610a2257634e487b7160e01b600052601260045260246000fd5b500490565b818103818111156109ff576109ff6109d2565b808201808211156109ff576109ff6109d256fea2646970667358221220d175ea9f4e62a6a3f095d018d63b723e64d0766070024fe47d3099f1482614b764736f6c63430008140033",
  "linkReferences": {},
  "deployedLinkReferences": {}
}